:020000040800F2
:2040000098250020D5400008DD400008DF400008000000000000000000000000000000005A
:20402000000000000000000000000000E14000080000000000000000E3400008F5A200088D
:20404000E7400008E7400008E7400008E7400008E7400008E7400008E7400008E7400008E8
:20406000E7400008E7400008E7400008E7400008E7400008E7400008E7400008E7400008C8
:20408000CDA30008EDA30008E7400008E7400008E7400008E7400008E7400008E7400008F6
:2040A000E7400008E7400008E7400008E7400008E7400008E7400008015C000825C700088D
:2040C0000348854600F02CFD00480047390E0108982500200448804704480047FEE7FEE785
:2040E000FEE7FEE7FEE7FEE7FDA20008C140000830B50B46014600202022012409E00D463C
:20410000D5409D4205D31D469540491B2546954040191546521E002DF1DC30BD70B50024A3
:204120002546002801DA01244042002901DA01254942FFF7DDFFAC4200D04042002C00D0A7
:20414000494270BDF0B51FB40646002082B005464024019100901BE0019922460F463046F8
:2041600000F0AEFB049A059B801A994110D310461946224600F094FB361A8F410197224655
:2041800001200021009F00F08BFB38184D4100902046641E0028DFDC019B00982946324674
:2041A00007B0F0BDF0B51FB486B000200090019002900698069980B204900798090C02045D
:2041C0000014114307900027089D099806913E463C4603900398A9B20204000C039004980C
:2041E0002D0C154348430021224600F059FBC719714110340E46402CECDB3846029A00F06F
:204200004FFB009A019B80180090594102980191103002904028CCDB00980BB0F0BD034606
:204220000B439B0703D009E008C9121F08C0042AFAD203E00B780370401C491C521EF9D239
:20424000704730B505462A460B4610781C78521C5B1C002801D0A042F7D0002C03D00028EC
:2042600002D06D1CEFE7284630BD10B5044605E00B780370401C002B00D0491C521EF7D2D3
:20428000204610BD03460A780270401C491C002AF9D11846704770B5064608F04DFB0468C7
:2042A00005460A220021304600F02EFB2C6070BDF8B502464A40D40F42004B0052085B0872
:2042C0009A4202D20246084611464A0023D0C30D4A00DDB2120EAD1A202D35DA49020126A6
:2042E000490AF6058A19002C00D0524220214F1B1146B9402A411018C20D9A4221D0002CE7
:2043000017D0012D08DCDA05801AD20F8019D207DBB200F039FBF8BDDA05801A0123400095
:204320001B06C01880185A428018CA0F1043490007E04908C2071143DA05801A8019400894
:20434000801800F019FBF8BD61000122511A001BF7E70122D2075140AAE70122D20750407A
:20436000A6E7024670B54A40D30FDB0740002DD04A002AD0010E140E000212020919400AC1
:20438000520A8418E50104465443000A120A2E045043A4194219200CC543AA18120C012521
:2043A000AD03521C521912047F39240400D0521C104301D44000491EC2B20C06C0092018EA
:2043C000401C4008802A02D003E0002070BD40084000002900DA0020184370BD70B50246ED
:2043E0004A40D50F40004A00ED0740085208002814D0002A12D0C40DD30D41020120C0053D
:204400005202490A520AE41A091812187D34914201D3641C00E04900002C01DA002070BDFB
:204420000023914201D3891A0343400849000028F7D100290AD0914202D10121C90705E0C8
:20444000914201D2012101E00121C943E005C018401900F091FA70BDF0B5074608465840EF
:2044600087B0C00F049048000E46590040084908BC1A884105D2384631461E4617460B4697
:2044800002465800400810434CD0300D039040055900400D490D0590401A0290402872DA7F
:2044A00018030121000B09050843019004980092002805D001995242002088410092019065
:2044C000029840210A1A0199009800F0E9F905460C466B4607CB00F004FAC0197141039A83
:2044E0000E0D0023D71756401A467A40164344D0049A002A2DD0029A012A039A15DC120542
:20450000C01A914101263605001C7141D20F059ED2070093019202962A46234600F07AFA67
:2045200007B0F0BD38463146FAE71605224A0F46B218C01AB74101210905001C4F410018D5
:204540007F41114618187941E20F10436D19644113E0E2076D0815436408C2071443039A19
:2045600001261205C01A91413605001C7141CE07400830434908C01851412A46234600F034
:204580003CFACDE7FFE7049801224000C117121A00238B4104983146C417381AA141EEE762
:2045A00030B40124E407634030BC55E730B40124E407614030BC4FE70000E0FFF0B51FB42E
:2045C00088B00B990998002448400999C00F490049080991C0070B990090490049080B91DC
:2045E00009990898A64608431CD00B990A98084318D0099801244000420D4800410D099851
:2046000024050003000B204309900B980003000B20430B9050181C49401800220190144686
:20462000104605E0002001460DB0F0BD032801DA034600E003239C46C11A0AAE0AE05F005B
:2046400008ADED5B4F00F75B7D430027AA187C41491C5B1E6145F2DD410004AB5A52210442
:20466000120C0A43240C401C0828DFDB019802900099704601910090059B049A0799069841
:2046800000F0C8F9D0E700000DFCFFFFF0B50C465C4085B0E40FE40703944C000026640890
:2046A00059009446490802460296224321D062460A431ED06200570D4A000E032303550DB4
:2046C000012402462C492405781B1B0B360B401823432643614600901C46501AB44103D3E0
:2046E0000098401C009002E0921800985B41002803DA0020014605B0F0BD00200121090558
:204700000746864611E064461D46141BB54106D36546521BB341744607430C43A646CD0765
:2047200040084908284392185B4105460D43EAD11046184313D060461946504071400843B4
:2047400006D06046101AB34106D20122002306E000220123DB0702E00122D243531000987E
:2047600074460105381C6141029C039D0019694100F043F9BFE70000FD030000C217C10F07
:20478000504010B54018CA079623002100F0FCF810BD10B500229623114600F0F5F810BD6F
:2047A0000EB505490291002100910A460B46019100F030F903B000BD33040000C20F41009E
:2047C00040020123400ADB05D207090EC0187F2901DA00207047962903DC9623591AC84055
:2047E00001E096398840002AF4D040427047410040020122400AD205090E80187F2901DA21
:2048000000207047962903DC9622511AC8407047963988407047C20FD207400040080BD0E6
:20482000C10D0723DB01C91840020905400A1143C208400711437047002001467047CB0FC1
:20484000DB07490010B5490802460A4307D00A0D07240903E401090B121B002A01DC002010
:2048600010BDC900440F0C43C100E018D205801800F082F810BD00000122D207002800DBA2
:20488000101A002900DB511A814270470122D207002800DB101A002900DB511A88427047EC
:2048A00010B5202A04DB0146203A9140002010BD914020239C1A0346E3401943904010BD7C
:2048C00010B5202A04DB0846203AD040002110BD0B46D340D0402024A21A91400843194655
:2048E00010BD10B5202A06DBCB170846203A1041C1170B4306E00B461341D0402024A21A5F
:2049000091400843194610BDF7B5009C0F4600262578641C002D05D000F014F90068405D6B
:20492000C007F5D12B2D02D02D2D18D0641E39462046029A00F00AF9002F04D03968A14201
:2049400001D1009939607105022400290BDA4042002803DD07F0F0FF0460A007FEBD012052
:2049600080020643E3E70028F8DA07F0E5FF04600048FEBDFFFFFF7F002904DA401C49003E
:2049800001D140084000704770B40024050C05D11024000402D1002921D01124050E01D198
:2049A00000020834050F01D10001241D850F01D18000A41C002801DB4000641C002908D026
:2049C00020252E1B0D46F540A14000D001212943084301061B1B000ADB1D02D5002070BCD5
:2049E0007047DB05181880180029F8DA401C4900F5D170BC40084000704710B5002B08DAB5
:204A00000024401C614192185B411A4301D14008400010BDF0B51FB482B005460C0003D0D6
:204A2000084607F0F1FE02E007F0EEFE20300246009021462846FFF733FF049B059A0446D0
:204A40000F4618431143084314D0184610431BD0009840210A1A18460599FFF731FF0546FD
:204A60000E46009A05990498FFF71AFF084305D0012004E02046394607B0F0BD0020C11799
:204A800005430E432C43374300990E986305401A7905E40A00220C43FD0A0A3002D500207E
:204AA0000146E9E70105101969410C9C0D9D00196941FFF7A2FFDFE74A0009030123090B06
:204AC0001B0519430A4B10B5520D9A4202DA0020014610BD064B34339A4203DC9A1AFFF7D8
:204AE000EFFE10BD034BD218FFF7DAFE10BD0000FF030000CDFBFFFF10B5002904DB01246F
:204B0000E40740428C412146002B04DB1C460123DB075242A341994200D1904210BD0000BF
:204B2000064C0125064E05E0E36807CC2B430C3C98471034B442F7D3FFF7C6FA684901089D
:204B40008849010800487047B4460108F7B582B0029C00272078641C15460197302802D0A1
:204B6000002D15D015E020780127641C782804D0582802D0002D09D00BE0002D01D0102DFC
:204B800007D1002710252078641C02E0082500E00A250026009610E0009901276943081872
:204BA000020C294680B2714300908E183804864201D3012001902078641C294600F068F8FB
:204BC0000028E9DA0398002805D0002F01D0641E00E0029C04600198002806D007F0ACFEB6
:204BE00002210160C81E05B0F0BD009930040843F9E770B54B005B0803430BD04B005C0D49
:204C0000002633466542B341D417AD1AA34102DB0020014670BD12053018514170BD000035
:204C20000EB5C217C10F5040CA0740180021054B0293019200910A460B46FFF7EBFE03B0F2
:204C400000BD00003304000070B5CD0F4A0009030123090B1B0519430B4BED070024520D88
:204C60009A4201DA002070BD074B34339A4203DC9A1AFFF725FE02E00449511888402C4320
:204C8000F1D0404270BD0000FF030000CDFBFFFF3A2800D23038202302469A43412A01D399
:204CA00010463738884201D30020C043704770B58C180578401C6B075B0F01D10378401C90
:204CC0002A1106D10278401C03E006780E70401C491C5B1EF9D12B0705D40023521E0DD48A
:204CE0000B70491CFAE70378401CCB1A921C03E01D780D70491C5B1C521EF9D5A142D8D3EC
:204D0000002070BD10B50B460021846A1C43846200BF0C4614432146416110BD002904D0A1
:204D2000826801231A43826003E0826802231A4382607047002904D0C26801231A43C26074
:204D400003E0C26852085200C2607047C26802239A43C260C2680A43C260704700B591B02D
:204D60000121480203F0C8FF0121314803F094FF304800680C2108432E4908602E4801F04E
:204D800051FB01200390002002900A902B480190012080020790802005902020089028480C
:204DA000009080150690002004900120400309906946214801F0E8FB00200B90012008A90E
:204DC000087400200D900E900F9010900BA91C48403800F06DF8072201214902184840386A
:204DE000FFF790FF1648403800F02CF8022114484038FFF7ABFF012111484038FFF79AFF2B
:204E000001210F484038FFF789FF00BF01210C48403800F035F80028F8D00948403800F0B0
:204E20005DF80121044801F0EFFA11B000BD0000010006000004004808000240FC0200209C
:204E40004024014030B501460020002200238C680125ED072C438C6000BF8C68E30FDB072C
:204E6000521C0F242403A24201D0002BF5D18C68E40FE407002C01D1086C00E0002030BD93
:204E800030B5024600200023012424060C40002C05D0946801252D06AC43234600E01368FE
:204EA0001C460C40002C01D0012000E0002030BD10B50022C268084B1A400C7964030B681C
:204EC00023438C682343CC6823430C6923434C6923431A43C26010BD03D2FFFF8168042254
:204EE000114381607047000000B587B00121080303F002FF0121480403F0CEFEE0200590F7
:204F000002216846017603214176002181760121C17605A90920C00601F09CFC0120059021
:204F200003216846417601210176002181760121C17605A90920C00601F08CFC1020059003
:204F400003216846417601210176002181760121C17605A90920C00601F07CFC08F032F896
:204F6000002205210920C00601F0BCFC002206210920C00601F0B6FC002207210920C0063D
:204F800001F0B0FC01210920C00601F0D9FC002168460180FF210531418007210902818002
:204FA0000221C18001210181490241810021C181072101820021818169460C4804F0EAFFCB
:204FC00001210903094805F011F80121074804F0D1FF00F02DF91F2803D101200449087008
:204FE00002E000200249087007B000BD00300140A7030020FFB581B004460E46174600F06D
:2050000093F8009001210920C00601F097FC022004F0F6FF0098C007C00F00280BD061043F
:20502000080E04F0EDFF6106080E04F0E9FF002004F0E6FF0DE0A104080E04F0E1FFA10605
:20504000090E32121143084604F0DAFFF0B204F0D7FF002504E0785D04F0D2FF681C85B2BC
:2050600004988542F7DB00BF09480089802108400028F9D101210920C00601F061FC00BF69
:2050800000F052F8802108400028F9D005B0F0BD00300140FFB581B006460F4600BF00F0F4
:2050A00043F80546802028400028F8D0E807C00F002804D07402F905C90D0C4303E0B40286
:2050C000B905890D0C4301210920C00601F036FC0B2004F095FF2102080E04F091FF210464
:2050E000080E04F08DFFE0B204F08AFF002004F087FF002405E0FF2004F082FF04990855DA
:20510000641C03988442F6D300BF06480089802108400028F9D101210920C00601F010FC66
:2051200005B0F0BD0030014010B501210920C00601F004FCD72004F063FF002004F060FF15
:20514000044600BF06480089802108400028F9D101210920C00601F0F3FB204610BD000071
:205160000030014010B501210920C00601F0E6FBC72004F045FF942004F042FF802004F07A
:205180003FFF9A2004F03CFF00BF09480089802108400028F9D101210920C00601F0D0FBA7
:2051A00000BFFFF7C1FF802108400028F9D010BD0030014070B50446FFF7B6FF05460121DB
:2051C0000920C00601F0BAFB812004F019FFE807C00F00280BD06104080E04F011FF6106E6
:2051E000080E04F00DFF002004F00AFF0AE0A104080E04F005FFA106080E04F001FF00200E
:2052000004F0FEFE00BF09480089802108400028F9D101210920C00601F092FB00BFFFF7E6
:2052200083FF802108400028F9D070BD0030014010B501210920C00601F080FB9F2004F07F
:20524000DFFE002004F0DCFE044600BF06480089802108400028F9D101210920C00601F0C6
:205260006FFB204610BD000000300140F8B507460C4615462E460F4B212212012146384670
:20528000FFF708FF0FE02046611C8CB20949085CFF2802D1701EC6B200E02E4606488442E3
:2052A00001D10648F8BD002EEDD1601B80B20446F8E70000501200200F020000FFFF0000C6
:2052C00010B50020C043334908801CE00222002131480088FFF7CAFF2E490880084600880C
:2052E0002E49884200D013E02B480088401C2A490880084600881F2805DD00200880084663
:205300000088FFF757FF2348008824498842DDD000BF21480088002803D120202049088005
:205320000DE01C480088801E1E49085C000219490988491E1B4A515C084319490880002068
:20534000C043194908801EE00D22002114480088FFF78CFF14490880084600880F498842D0
:2053600000D015E00E480088401C0D490880084600880E49884206DD20200949088008460E
:205380000088FFF717FF0848008804498842DBD000BF10BDAC040020AA040020FFFF0000B7
:2053A000A604002050120020A8040020FF1F000010B50D2200211E480088FFF757FF1D4902
:2053C0000880084600881C49884228D10D231B4A1848018816480088FFF70CFE0020154965
:2053E000088013480088401C11490880084600881349884202DD20200D4908800C4800882F
:20540000FFF7D8FE0A48008800F01CF80D230B4A0848018806480088FFF7ECFD07E00D23B8
:20542000064A0448018802480088FFF7E3FD10BDA6040020A8040020FFFF0000FC0E002014
:20544000FF1F000038B5044621126846017044700222002117480088FFF708FF16490880E1
:2054600008460088154988421AD100201249088010480088401C0F490880084600881F2807
:2054800001DD002008800B480088FFF793FE02236A460948018807480088FFF7ABFD07E019
:2054A00002236A460448018802480088FFF7A2FD38BD0000AA040020AC040020FFFF00004A
:2054C0000146F020084000110A2250430A07120F8018C0B27047000000B50246012A08D169
:2054E00007480849086008480068C0680749086004E00020034908600BF08AFF00BD000013
:2055000011140108600400205C0400205404002010B504460121480603F0DEFB0021012054
:20552000400603F0D9FB10BD10B50021837A01229A401146394A126801231A43374B1A60E0
:205540001A46D2698A43DA61027B002A1AD11A46D2688A43DA60C288120443881A43304B72
:205560000924A4011B19847AE4001A518288120403881A432A4B0924A4011B19847AE40073
:205580001B195A60027B012A1BD1244AD2680A43224BDA600288120443881A43204B09248D
:2055A000A4011B19847AE4001A5182881204C3881A431B4B0924A4011B19847AE4001B197B
:2055C0005A60C27A002A05D1144A52688A43134B5A6004E0114A52680A43104B5A600289F2
:2055E000002A04D10D4A52698A430C4B5A610289012A04D1094A52690A43084B5A61427B0A
:20560000012A04D1054AD2690A43044BDA61034A126852085200014B1A6010BD006600407D
:205620000064004070B504460D4600266069284000286FD0FF210131681A8D4264D010DC83
:20564000082D3DD006DC012D28D0022D2CD0042D7BD12FE0102D39D0202D3DD0402D74D1F7
:2056600040E07F221202811A904268D00DDCFF38013800284FD0FF38FF380238002850D020
:2056800001218902401A60D151E00120C003081A2ED001210904401A57D12FE0A0682E495E
:2056A00000F016FC064652E0E068032100F010FC06464CE0E068082100F00AFC064646E0B1
:2056C000E068102100F004FC064640E02069032100F0FEFB06463AE02069082100F0F8FB64
:2056E000064634E02069102100F0F2FB06462EE06068082100F0ECFB064628E06068102144
:2057000000F0E6FB064622E0A069012100F0E0FB06461CE01CE0A069022100F0D9FB0646F4
:2057200015E0A069042100F0D3FB06460FE0A069702100F0CDFB064609E006E0FFE7606832
:20574000042100F0C5FB064601E0002600BF00E00026304670BD000001010100002A03D0B9
:2057600043690B43436102E043698B434361704730B502460020002314680225AC4314605E
:20578000146801252C43146000E05B1C5468E407E40F002C02D13C4CA342F6D15468E407B9
:2057A000E40F002C01D100206DE08C79012C04D1146880252C43146003E014688025AC438D
:2057C0001460CC79012C04D1146840252C43146003E014684025AC4314600C7A012C04D19B
:2057E000146820252C43146003E014682025AC4314604C7A012C04D1146810252C431460A2
:2058000003E014681025AC4314608C7A012C04D1146808252C43146003E014680825AC4382
:205820001460CC7A012C04D1146804252C43146003E014680425AC4314608C78A407CD7845
:205840002D062C430D792D042C434D792D052C430D886D1E2C43D461146864086400146095
:20586000002300E05B1C5468E407E40F002C02D0054CA342F6D15468E407E40F002C01D082
:20588000002000E0012030BDFFFFFF0010B50C010346FF33B1331B59042423401372137ABB
:2058A000002B07D10C010346FF33B1331B595B0D136006E00C010346FF33B1331B59DB0881
:2058C00053600C010346FF33B1331B590224234053720C010346FF33B133E3185B681B079B
:2058E0001B0F93720C010346FF33B133E3185B681B041B0ED3740C010346FF33B133E31859
:205900009B68D3720C010346FF33B133E3189B681B041C0E14730C010346FF33B133E3189E
:205920009B681B021C0E54730C010346FF33B133E3189B681B0E93730C010346FF33B13351
:20594000E318DB68D3730C010346FF33B133E318DB681B041C0E14740C010346FF33B133DC
:20596000E318DB681B021C0E54740C010346FF33B133E318DB681B0E9374002904D1C368D7
:2059800020242343C36003E0036920242343036110BD000000B585B00E4801900021684670
:2059A000417204210172082181720B4801786846C1720A480178684601730021417381731D
:2059C000C1730174417481746946054800F01AF805B000BD03020518920300209303002077
:2059E0000064004000218171C171017241728172C1728170C17003210171022141710121C3
:205A00000180704730B50246002093680124A4062340A34200D110E093680124E4062340C1
:205A2000A34201D1012008E09368012424072340A34201D1022000E0042004287BD004019F
:205A40001346FF3381331B59DC07E40F05011346FF3381335C510B7A002B0FD10B885B0548
:205A60004C7A234305011446FF3481346459234305011446FF348134635110E04B68DB0015
:205A80000C7A23434C7A234305011446FF3481346459234305011446FF34813463518B7A82
:205AA0001B071B0F8B7204011346FF338133E3185B681C09240105011346FF338133EB1809
:205AC0005C6004011346FF338133E3185B688C7A234305011446FF3481342C1963608B7B46
:205AE0001B064C7B240423430C7B24022343CC7A234305011446FF3481342C19A3608B7CDA
:205B00001B064C7C240423430C7C24022343CC7B234305011446FF3481342C19E360040178
:205B20001346FF3381331B590124234305011446FF348134635130BD0346042B16D008DCFC
:205B4000002B0FD0012B0ED0022B0DD0032B12D10BE0202B0BD0212B0AD0222B09D0232B6B
:205B600009D107E008E007E006E005E004E003E002E001E000E000BF00BF002070470020EB
:205B80007047000010B500220449054804F040FE0449034804F035FE002010BD181D00209A
:205BA00028050020981C002070B504460D46214604482A68FEF759FB034804F007FE002010
:205BC00070BD00006807002028050020F8B504460D4600260848076A786D002801D001208C
:205BE000F8BD2A462146054804F012FE034804F067FE06463046F3E72807002028050020EC
:205C000000B585B002215A48FFF70CFD01286FD1002168468172002001906846C1740172A4
:205C20004172002000906846C172017341738173C1730174417481746A464D48FFF726FE52
:205C40004C49019888420CD101204B49087003F0A7FA6846C07A494908806846407B4849B2
:205C600008704849019888421DD1012046490870022003F095FA6846C07A44490870684663
:205C8000007B434908706846C07A37384042414908806846007B373840423F4908806846C2
:205CA000407B3E4908703E490198884237D101203C490870032003F073FA6846C07AFF2888
:205CC00017D06846007BFF2813D00120364908706846C07A354908706846007B3449087096
:205CE0006846C17A007B00020818324908800EE03BE000202C4908702C4908702C4908702B
:205D00006846C17A007B000208182A4908806846807B294908706846407B284908702849AC
:205D20000198884221D1012026490870042003F037FA6846C07A04210840801022490870F6
:205D40006846C07A102108400011204908706846407B0421084080101D4908706846407B43
:205D60001021084000111B49087005B000BD000000640040030305186103002012030020CB
:205D80006B0300200304051862030020160300201703002010030020140300206C03002060
:205DA000030505186303002064030020180300201903002068030020670300206A03002098
:205DC00003D6FD18650300209403002095030020960300209703002010B5044601214020DA
:205DE00002F05AFF00F036F80020C04300F064F8002000F047F8204600F064F810BD70B5D8
:205E000004460D46661900F04DF803E02078641C00F006F8B442F9D300F02EF8C0B270BDD1
:205E20000146024801700068704700000030024010B504460121402002F02EFF00F00AF82D
:205E4000002000F039F8102000F01CF8204600F039F810BD0020C0430549086005484861AA
:205E600000200871401E0861012088607047000000300240B71DC10401480068704700008F
:205E80000030024001460020054A9068182302469A43104602460A431046014A906070474F
:205EA00000300240034880680121084301498860704700000030024001490861704700000B
:205EC000003002400149486170470000003002400246002013460B40002B01D0012000E02B
:205EE0000020704710B51748046809E01648006800681649086014480068001D12490860B9
:205F0000114800680F4909688842EFD10F4800680F49086020680968884212D000210846DA
:205F20000AF0F0FD0BA00AF03FFE012100200AF0E9FD0DA00AF038FE10480AF0A7FE00BFE3
:205F4000FEE710BDE4030020E803002000300240EC03002020202020CFF0EEF8E8E2EAE043
:205F60002020202000000000202020EFEEE2F0E5E6E4E5EDE02020200000000000350C0090
:205F800010B5254806F020FC244800787D21C9004843224949786422514341181F488078E9
:205FA0000A22504308181D49C9784018002808D101201B49087004F0E1F80120FFF78CFA9B
:205FC0001EE0164800787D21C900484313494978642251434118114880780A22504308183B
:205FE0000E49C97840180F49884206D1022004F0C5F80120FFF770FA02E00020FFF76CFA06
:2060000009480078401C0849087008460078032801DD0020087010BDA04001089E030020B4
:20602000A203002057040000AE03002038B5A849487BFEF7AEFB05467F20C00503460A220C
:2060400000210090284609F03FFB0446FEF7CFFB9F4948730846407B030006F005FC0BFC38
:20606000FDE1C7AD92775B3F23072200012100200AF048FD97A00AF097FD18209449887389
:20608000994808831120886298484883FF202D3088839B208000C883FF20D030088494483A
:2060A000C86213E1012100200AF02CFD91A00AF07BFD1820864988738B480883112088623F
:2060C00091484883FF202D3088839B208000C883FF20D03008848648C862F7E00121002053
:2060E0000AF010FD89A00AF05FFD1820784988737D4808831120886289484883FF202D30A3
:2061000088839B208000C883FF20D03008847848C862DBE0012100200AF0F4FC81A00AF057
:2061200043FD18206A4988736F4808831120886281484883FF202D3088839B208000C8833B
:20614000FF20D03008846A48C862BFE0012100200AF0D8FC79A00AF027FD28205C498873EA
:206160007B480883112088626D484883FF20283088837848C88377485F3808847648C862DF
:20618000A4E0012100200AF0BDFC74A00AF00CFD28204F4988736E4808831120886266488A
:2061A0004883FF20283088836A48C88369485F3808846948C86289E0012100200AF0A2FCA3
:2061C0006BA00AF0F1FC4620414988736D480883112088626C484883D72088836B48C88308
:2061E0000120400208845C48C8626FE0012100200AF088FC66A00AF0D7FC46203449887322
:20620000604808831120886266484883D72088835E48C8830120400208844F48C86255E0DF
:20622000012100200AF06EFC5FA00AF0BDFC46202749887353480883302088625948488369
:20624000D72088835148C8830120400208844248C8623BE000E01CE0012100200AF052FC34
:2062600056A00AF0A1FC64201949887358480883112088624B483238488323200001888353
:206280004248801FC8833348493008845148C8621CE0012100200AF035FC4FA00AF084FC75
:2062A00064200B4988734A480883112088623D48323848832320000188833448801FC88364
:2062C0002448493008844348C86200BF00BF38BD080C0020202020D2C32D3132202835EC03
:2062E00029202020000000005046000088130000865A733F202020D2C32D3132202836EC63
:20630000292020200000000070170000202020D2C32D3132202837EC2920202000000000F4
:20632000581B0000202020D2C32D3132202839EC292020200000000028230000202020D2F2
:20634000C32D3230202837EC2920202000000000606D000069020000728A6E3F202020D2E4
:20636000C32D3230202839EC2920202000000000202020D2C32D333520283130EC2920204D
:2063800000000000C8AF00000429000089030000202020D2C32D33352028382C36EC29202C
:2063A00000000000CA210000D2C32D333528D1F2F0E5EBE02DEEEF2900000000202020D2D8
:2063C000C32D3530202020202020202000000000D8D600005AF5693F202020D0E5E7E5F0F2
:2063E000E2202020202020200000000070B504460A212046FDF792FE05010A212046FDF7CC
:206400008DFE0D43E8B270BD002904D0026801231A43026003E00268014B1A400260704784
:20642000FEFF00000168554A114001600021016041608160C1605249884208D15049083968
:2064400049680F2211434E4A083A516094E04C491431884208D14A4908394968F02211439F
:20646000474A083A516087E045492831884209D14349083949680F2212021143404A083AC3
:20648000516079E03E493C31884209D13C49083949680F2212031143394A083A51606BE088
:2064A00037495031884209D13549083949680F2212041143324A083A51605DE03049643172
:2064C000884209D12E49083949680F22120511432B4A083A51604FE029497831884209D1BD
:2064E0002749083949680F2212061143244A083A516041E02349884208D1224908394968AF
:206500000F2211431F4A083A516035E01D491431884208D11B4908394968F0221143194A18
:20652000083A516028E017492831884209D11549083949680F2212021143124A083A5160CB
:206540001AE010493C31884209D10E49083949680F22120311430B4A083A51600CE009496E
:206560005031884208D10749083949680F2212041143044A083A516070470000FEFF000025
:20658000080002400804024010B5002202680D4B1A400C6A8B6823430C6923434C6923439B
:2065A0008C692343CC6923434C6A23438C6A23431A430260CB6843600B6883604B68C360AC
:2065C00010BD00000F80FFFF10B5054806F0FCF80123044A0449072002F036F810BD000092
:2065E0002C420108504201084135010810B5054806F0EAF80123044A0449072002F024F82C
:2066000010BD0000E4410108084201086534010830B5044604250B20000400F0AFF8054621
:20662000042D17D10C480069022108430A49086108464461006940210843074908610B206E
:20664000000400F09BF80546034800690221884301490861284630BD0020024004200D49DC
:20666000C968C907C90F002901D0012010E00949C96810221140002901D0022008E00549DE
:20668000C96804221140002901D0032000E004207047000000200240034800698021084378
:2066A000014908617047000000200240002806D00649096810221143044A116005E00349DA
:2066C000096810229143014A116070470020024078B506460C460425002000900B2000049B
:2066E00000F04CF80546042D24D113480069012108431149086134800B20000400F03EF8F8
:206700000546042D10D1B01C0090200C009908800B20000400F032F80546074800694008DF
:2067200040000549086105E0034800694008400001490861284678BD002002400146002022
:20674000044A10684008400002460A431046014A106070470020024005480069802108408D
:20676000002804D00348024948600348486070470020024023016745AB89EFCD10B5034605
:206780000424FFF76BFF044603E0FFF767FF04465B1E012C01D1002BF7D1002B00D105240E
:2067A000204610BD70B5FFF7D7FF0A48FFF730FF094C084D002607E028462168FFF788FF13
:2067C000241D2D1D701C86B20D2EF5D3FFF764FF70BD000000F00108080C002010B50649A0
:2067E000064A002005E08300CB5884001351431C98B20D28F7D310BD00F00108080C002014
:2068000010B5044604211148006809F053FD0F4908600846006800280DD1FFF79DFF0C48D8
:20682000FFF7F6FE0A48094908602146FFF750FFFFF732FF08E0FFF78FFF21460348006809
:20684000FFF746FFFFF728FF10BD00007403002000E80108F0B50A4600210023002400BF6F
:206860003DE001258D402B4615681D402C469C4234D11579012D02D01579022D16D1856849
:206880004F000326BE40B543856055794E00B540866835438560858801268E40B54385804A
:2068A000858896798E40B6B23543858005684F000326BE40B543056015794E00B54006688A
:2068C00035430560C5684F000326BE40B543C560D5794E00B540C6683543C560491C102921
:2068E000BFD3F0BDF0B5002300244D07EE0E1546B5402B46CD10AE0005462035AD594E07D6
:20690000F70E0F26BE40B543CE10B60007462037BD51CD10AE003D46AD591D432C46CD103E
:20692000AD003E467451F0BD02460020138A0B40002B01D0012000E0002070470185704753
:20694000816170471CB50120000300900321684641710021017169460920C006FFF77AFFF5
:20696000002000E0401C02498842FBD31CBD000010270000002A01D0816100E001857047CE
:2069800010B50AF0ADFD04460AF0B0FD10BD000001468800014A1058704700009C110020CA
:2069A00010B5012000F010F810BD000001460548405C022804D10020024A50540120704715
:2069C0000020FCE73212002001460148405C70473C120020034800680349097840180149DD
:2069E00008607047140500201C05002070B50446104801787D20C000FDF77AFB0646314635
:206A00000D480068FDF774FB054600F0FBFB002801D0012070BD042C07D200222146501EDE
:206A200000F00EF80548046001E00120F2E70020F0E700001C05002020050020180500201A
:206A400070B504460D4616462946204605F038FF70BD01460A6801234D20C000435000202D
:206A600013235B01CB1818705420805A01231843542398525420805A0223184354239852BC
:206A800000207047704770B505460C4680202040802805D16007060E28462830311804E0BA
:206AA00066012846FF3029303118002A03D100200873CB8004E0012008730B81180C488153
:206AC000002070BD70B504460D466B012146283159184A69272109010859294604F092F9B6
:206AE00070BD70B504460D466B012146FF31293159184A69272109010859294604F0F9F91E
:206B000070BD70B504460E4680203040802807D17007010E204628300D180120687007E0AC
:206B20007007010E2046FF3029300D18002068707007400F287000BF112040012018007A83
:206B4000012801D1022070BD0120112149016118087200BF2946206805F0D0F900BF002008
:206B6000112149016118087200BF00BFEBE770B504460E463007000F6168884201D90120BF
:206B800070BD80203040802807D17007010E204628300D180120687007E07007010E204603
:206BA000FF3029300D18002068700020A8707007400F287000BF112040012018007A01288E
:206BC00001D10220DCE70120112149016118087200BF2946206805F0EDFA00BF00201121CB
:206BE00049016118087200BF00BFC9E702460020704702464807030E1046FF302930181855
:206C0000C0697047FFB581B005460E461F460020009080203040802807D17007010E284677
:206C200028300C180120607007E07007010E2846FF3029300C18002060707007400F20701A
:206C400003982061E7706078002801D02078E081022F01D10020207100BF112040012818D2
:206C6000007A012802D1022005B0F0BD0120112149016918087200BF2146286804F0FEFEDC
:206C800000BF0020112149016918087200BF0098EAE7FFB581B005460E4617467007010E0F
:206CA0002846FF3029300C1867610498A0610020E06160707007400F20707007400F0028E0
:206CC00004D12146286805F00FFB03E02146286805F00AFB002005B0F0BD70B504460D46D1
:206CE0006807400F6168884201D9012070BD80202840802807D16807010E204628300E1831
:206D00000120707006E069012046FF3029300E18002070700120B0706807400F307000BFB0
:206D2000112040012018007A012801D10220DDE70120112149016118087200BF3146206800
:206D400005F0A4FA6807400F002805D1232109016118206805F02AFA00BF00201121490121
:206D60006118087200BF00BFC0E7FFB581B005460E4617467007010E284628300C186761E2
:206D80000498A0610020E061012060707007400F20707007400F002804D12146286805F0FF
:206DA000A3FA03E02146286805F09EFA002005B0F0BD000010B50446206805F0BBFC0121E8
:206DC000C9030840884202D1204601F095FC206805F0B0FC01218902084088420DD12068CC
:206DE000403080888843216840318880204600F081F90021204600F0A4F9206805F09AFC57
:206E0000012189030840884206D12068403080888843216840318880206805F08BFC0121E8
:206E200049030840884206D12068403080888843216840318880206805F07CFC012109032D
:206E4000084088422BD1206840300088584908402168403108802068403000885449091FF4
:206E600008402168403108801320400120180078012808D100201321490161180870002172
:206E80002046FFF7FFFD204600F04BF920684030808801210903884321684031888020687D
:206EA00005F048FC0121C9020840884224D1206840300088082108432168403108802068A7
:206EC000403080880121C9028843216840318880206840300088042108432168403108800E
:206EE000206805F027FC012109030840000B002802D1204600F072F9206805F01BFC802180
:206F00000840802832D120684030808888432168403188801320400120180078002822D172
:206F2000206840300088042108432168403108802068403000880821084321684031088069
:206F40000120132149016118087020684030808AF0210840810899208000015101212046AA
:206F6000FFF790FD02E0204600F038F9206805F0E1FB012149020840884209D1206840307B
:206F800080888843216840318880204600F0D1F8206805F0CFFBFF2101310840884206D17B
:206FA000206840308088884321684031888010BDFBFF000030B585B00446002C02D10120B9
:206FC00005B030BD112040012018407A002806D11121490161180872204600F075F8032057
:206FE0001121490161184872206805F0D3F8002523E001216A0120462830101841706901E4
:2070000020462830455469010818C58100216A01204628301018C1706A0120462830101855
:2070200001616A0120462830101841616A012046283010188161681CC5B26068A842D8D86B
:20704000002523E000216A012046FF3029301018417069012046FF302930455400216A0138
:207060001018C1706A012046FF302930101801616A012046FF302930101841616A012046E0
:20708000FF30293010188161681CC5B26068A842D8D81422214610316846FDF7C0F8204663
:2070A0000FC805F067F800212420015501201121490161184872E069012802D12046FFF779
:2070C000C8FC00207CE7000038B504460849206888420CD10121C80501F0EEFD1F216846F9
:2070E000017001214170817001F076FA00BF38BD005C004070B504460125A068022801D111
:2071000000BF01E0012500BF00BF272109010859294604F074F827210901085904F02CF8DE
:2071200070BD10B5044627210901085904F04AF810BD10B5044627210901085904F04AF865
:2071400010BD70B504460D4600BF112040012018007A012801D1022070BD012011214901D6
:207160006118087200BF242005552946206805F005FB00BF0020112149016118087200BFC6
:2071800000BFE9E710B5044627210901085923210901611804F059F810BD10B5044600BFF7
:2071A000112040012018007A012801D1022010BD0120112149016118087200BF206804F0F6
:2071C000CFFF206805F0A2FA00BF0020112149016118087200BF00BFE9E7000010B504461D
:2071E00027210901085904F0B4F8A069002805D003480069062108430149086110BD000090
:2072000000ED00E070B504462546681E0949884201D901200CE0681E074948610321081F74
:2072200005F04EFB00200449886107200861002070BD0000FFFFFF0000E000E0C161704747
:20724000002904D0026801231A43026003E00268520852000260704710B502460023002082
:2072600093691C460C402346002B01D0012000E0002010BD10B50A46002103685B085B00B2
:2072800003600168144B19409468240253682343194301600F2424061368A34303610368DD
:2072A00001242343036000218160C1601469936923431946816083680124E403234383605E
:2072C000D16803680B4303604168044B194053691943416010BD0000FFE0CF00FF7FFF0750
:2072E00081627047F0B50C4600214168074D2940A505AD0D1604FF273F043E4035431D4339
:20730000059E354329434160F0BD0000009800FC00B589B0102001F09BFD0121880401F0BE
:20732000BBFC0121480501F0C7FC012206211848FFF7D8FA012207211548FFF7D3FA402036
:207340000790022108A8017000214170012181700021C17007A90E48FFF77CFA8020079072
:2073600007A90B48FFF776FA00200390019002900490059006900748009069460648FFF73D
:2073800079FF01210448FFF75BFF09B000BD0000000400481C13400000540040014802495E
:2073A00008607047AAAA000000300040002004E00021034A1154411CC8B21E28F8DB70476C
:2073C0001412002000B58BB0042208213748FFF789FA042209213548FFF784FA03200002CA
:2073E0000990022108A8017203214172002181720121C17209A92D48FFF72CFA2C48FEF7C2
:2074000087F805A8FEF7EEFA0021684681760121C1760021017741778177C1778175C17597
:207420000C210176012141760A21818205A92048FEF79EF9012802D11E49087002E0002022
:207440001C4908700021684681730121C1730174194981801949C1801749018118494181B6
:20746000002181810121417401A8FEF75DF8012168468173104981801249C1801249018188
:207480001249418101A8FEF74FF8012202210848FEF764F91E2108A80170022141700121AC
:2074A000817001F099F80BB000BD00000004004800640040A803002028C000001C1800000A
:2074C0001C2000001C280000EEC700001CB0000010B501F031FC012001F09EFC01F028FD06
:2074E000012817D12E490870002001F0F7FC032189040120000401F0DFFC012001F0C8FC10
:20750000022001F0F9FC002001F076FC002001F0ADFC16E000202249087001F0DFFC03213D
:2075200089040120C00301F0C7FC012001F0B0FC022001F0E1FC002001F05EFC002001F0FC
:2075400095FC0020FFF7FAF80120FFF7AFF80020FFF74CFA0121084601F0CEFB012108071D
:2075600001F0AAFB012001F05FFC00BF712001F01FFC0028FAD001210320400401F08CFBB9
:2075800001210520C00501F097FB002001F0C2FC044880690121890408430249886110BD5D
:2075A000A4030020001002401CB501210320400401F072FB02200090002168460171C171D5
:2075C0000321417169460920C006FFF743F931200090002168460171C1710321417169462C
:2075E0000148FFF737F91CBD000400481CB5012080020090032168464171012101710021BA
:2076000081710121C17169460448FFF723F9012189020248FFF792F91CBD0000000400487A
:2076200000B587B00121880301F046FB0121880401F032FB0520400305900221684601766E
:2076400003214176002181760121C17605A92248FFF700F901200003059003216846417695
:207660000121017600218176C17605A91A48FFF7F1F800220D211848FFF734F900220F210E
:207680001548FFF72FF9012109031348FFF756F90321890368460180FF21053141800F217B
:2076A000090281800021C18001810121490241810021C1810721018200218181694607487C
:2076C00002F068FC0021054802F090FC0121034802F050FC07B000BD000400480038004085
:2076E00010B5012109034E48FFF72AF9012109034B48FFF723F900BF4A4800898021084052
:207700000128F9D000BF47480089022108400128F9D04548808F80034349498F4903084329
:207720004149098F090308433F49C98EC90208433D49898E890208433B49498E4902084377
:207740003949098E090208433749C98DC90108433549898D890108433349498D490108437F
:207760003149098D090108432F49C98CC90008432D49898C890008432B49498C4900084387
:207780002949098C08432949088008460188254802F0FEFB2448807FC0032349097F8903C0
:2077A00008432149897E490308431F49097E090308431D49897DC90208431B49097D890239
:2077C00008431949897C490208431749097C090208431549C989C901084313498989890169
:2077E000084311494989490108430F490989090108430D49C988C90008430B498988890095
:20780000084309494988490008430749098808430649088008460188024802F0B9FB10BDCF
:2078200000040048003800404A0C00203004002070B505464320C0004459207E002809D1EA
:207840006069002806D0607A002803D10121284603F03DFD8121284603F039FD607A022891
:2078600006D11F2322460C320121284603F057FC70BD000070B505464320C000445921698C
:207880002163616961630121284603F09FFB1F280CD12949E068884208D1607E012805D854
:2078A000A07E002802D0A07E10280BD9617E20230522284601F0F3FF022060722846FFF784
:2078C000B7FF36E0617E22461B32284601F0F0FC00280BDA207A052804D10121284600F0D4
:2078E000CDF826E02846FFF7A3FF22E0207A02281ED0207A01281BD0207A032818D0542034
:20790000005B002807D05420025B21465631284600F0D2F80DE05420005B002804D100214C
:20792000284600F0ABF804E02846FFF781FF00E070BD00BFFCE700005553424370B5064631
:207940000D464320C0008459607A022806D18121304603F0BCFC002060720CE08020284050
:20796000802807D1607A012804D00121304600F085F800E070BD00BFFCE770B505460E4638
:207980004320C0004459207A022804D0032810D0042813D10CE0617E22461B32284601F095
:2079A00087FC002803DA0121284600F067F806E000BF0021284600F061F800E000BF00BF85
:2079C00070BD70B505460E464320C0004459207A002802D0012811D103E02846FFF74AFFC7
:2079E0000DE0617E22461B32284601F061FC002803DA0121284600F041F800E000BF00BF2E
:207A000070BD4322D200115800220A72704770B505464320C000445900202072607223214C
:207A200049016118487623214901611808768720800040590168002088470121284603F0A5
:207A4000A3FA8121284603F09FFA1F2322460C320121284603F063FB70BD70B50546432024
:207A6000C000445900202072012060721F2322460C320121284603F052FB70BD70B50546AF
:207A80000E464320C00044590A48E06238200655002020720D2322462C328121284603F0E0
:207AA00063FC1F2322460C320121284603F037FB70BD000055534253F7B5064615464320AA
:207AC000C00084596069A84201D2606900E0284687B2606B411B6163002138200155042055
:207AE00020723B4681213046019A03F03DFCFEBDF0B58FB00446FF220021092005F003FF49
:207B0000C0B209900998002802D009980FB0F0BD0122102105A805F0BBFE002801D00120E9
:207B2000F4E7FF2200210A2005F0EDFEC0B209900998002801D00998E8E70122102101A80C
:207B400005F0A6FE002801D00220DFE76846007DC0210840801120706846007D3C21084066
:207B6000801060706846007D8007800FA0706846407DE0706846807D20716846C07D6071A1
:207B80006846007E0001E080E1886846407EF022104000110143E1806846407E0007000FE9
:207BA00020726846807E80210840C01160726846807E402108408011A0726846807E202116
:207BC00008404011E0726846807E1021084000112073002060736846807E8007000DC117E6
:207BE000616120616846C07E8000C3172169014362691A43626121616846007FC023184059
:207C00008011C3172169014362691A43626121616846007F38210840C01020766846007F5D
:207C20004007400F60766846407FE02108404011A0766846407F1C2108408010E076684635
:207C4000407F8007400F2077217F6846807F80221040C011014321776846807F7C2108407A
:207C6000801060776846807F8007C00EA077A17F6846C07FE022104040110143A1776846CA
:207C8000C07FC006C00EE07708A8007880210840C1112020015508A80078602108404111FE
:207CA0002120015508A800781C21084081102220015508A800788007010F23200155015DA1
:207CC00008A84078C0221040801101432320015508A840782021084041112420015500219E
:207CE0002520015508A84078C107C90F2620015508A8807880210840C1112720015508A895
:207D000080784021084081112820015508A880782021084041112920015508A88078102197
:207D2000084001112A20015508A880780C21084081102B20015508A880788107890F2C20E6
:207D4000015508A8C078FE21084041102D20015501212E2001555620005D04280ED1684638
:207D6000007F0002C117616120616846407F002223696169181851416161206101277F02D4
:207D80000020666925690E90284631463A460E9BFCF708FA7B0000220B930A920C910D90B4
:207DA0001A460A9BFCF7FEF9E164A064384620656846017930200155684640790102618669
:207DC000618E68468079084360866846C07901066163616B6846007A000408436063616B58
:207DE0006846407A000208436063616B6846807A084360636846C17A382001556846017BC8
:207E0000392001556846407B0106E163E16B6846807B00040843E063E16B6846C07B000241
:207E20000843E063E16B6846007C0843E0634020015D6846407CF022104000110143402071
:207E400001556846407C0007010D42200153015B6846807C0843422108536846C07CFE217F
:207E6000084041104420015501214520015500204CE600007CB5002000900190002401E009
:207E8000601C84B2FF2CFBDD002404E0FF2005F0A1FD601C84B20A2CF8DB00240BE09522F2
:207EA0000021084605F02FFDC5B2012D01D1002404E0601C84B27B488442F0DB00BF79482D
:207EC000844201D101207CBD8722FF21AB31082005F04FFDC5B2052D58D1012172488175FE
:207EE00005F070F8FF2005F075FD002415E000221146372005F007FDC5B2012D01D02846D9
:207F0000E1E700221146292005F0FDFCC5B2002D01D1002404E0601C84B262488442E6DB88
:207F200000BF6048844219D100240BE000221146012005F0E8FCC5B2002D01D1002404E02A
:207F4000601C84B257488442F0DB00BF5548844201D10220B7E7002153488175012000F0C8
:207F600001F9012200213B2005F0CDFCC5B2002D01D02846A7E7FF2201214902102005F086
:207F8000C2FCC5B2002D7BD028469CE7012D77D1FF2005F01FFDC1B268460170FF2005F0F7
:207FA00019FDC1B268464170FF2005F013FDC1B268468170FF2005F00DFDC1B26846C17033
:207FC00005F000F8FF2005F005FD68468078012866D16846C078AA2862D1002416E0002271
:207FE0001146372005F08FFCC5B2012D01D0284669E7002201218907292005F084FCC5B216
:20800000002D01D1002404E0601C84B225488442E5DB00BF2348844201D1032053E7002273
:2080200011463A2005F0A5FCC5B2002D01D0284649E7FF2005F0CEFCC1B268460170FF2057
:2080400005F0C8FCC1B268464170FF2005F0C2FCC1B268468170FF2005F0BCFCC1B26846C4
:20806000C17004F0AFFFFF2005F0B4FC6846007840210840002804D004210B48817503E04D
:208080000EE002210848817508480088382188430649088008460088082108430349088098
:2080A000002010E7FF0F0000A014002000300140F7B505460E461948807D042800D06D0242
:2080C00000222946122005F01EFCC7B2002F01D00120FEBD002412E061028819002201211B
:2080E000490205F0D5FB002808D0002211460C2005F009FC04F066FF0220EAE7641C02986B
:208100008442E9D3002211460C2005F0FCFB04F059FFFF2005F05EFC0020DAE7A0140020DD
:2081200070B504460E460E48807D042800D0640200222146112005F0E6FBC5B2002D01D0C2
:20814000012070BD01225102304605F0A1FBC5B2002211460C2005F0D6FB2846F1E700002C
:20816000A014002010B586B00446002168468180FF210531C18007210902018102214181E5
:20818000012181814902C1810021418207218182002C03D138206946088202E008206946D5
:2081A000088201A9044801F0F5FE01210903024801F01CFF06B010BD00300140FEB50546E5
:2081C0000E4617464448807D042800D06D024248807D002804D000223946172005F093FB1C
:2081E00000222946192005F08EFBC4B2002C01D00120FEBD10210920C006FEF79FFBFF201A
:2082000005F0E8FBFF2005F0E5FBFF2005F0E2FB002001903AE0FC2005F0DCFB002002903C
:2082200007E03078761C05F0D5FB0298401C80B202900121490202988842F2DBFF2005F0EC
:20824000C9FBFF2005F0C6FBFF2005F0C3FBC4B2E006C00E052803D004F0B4FE0220C8E712
:20826000002000900AE00098411C009101218904884203D104F0A6FE0320BAE7FF2005F021
:20828000A9FBFF28EFD10198401C01900198B842C1D3FD2005F09EFBC4B2002C01D1042063
:2082A000A7E7002000900AE00098411C009101218904884203D104F085FE052099E7FF2088
:2082C00005F088FBFF28EFD104F07CFEFF2005F081FB00208DE70000A0140020F8B50446E2
:2082E0000D462C48807D042800D0640200222146182005F008FBC6B2002E01D00120F8BD52
:2083000010210920C006FEF719FBFF2005F062FBFF2005F05FFBFF2005F05CFBFE2005F0D7
:2083200059FB002705E028786D1C05F053FB781C87B2012040028742F5DBFF2005F04AFB4F
:20834000FF2005F047FBFF2005F044FBC6B2F006C00E052803D004F035FE0220CFE7002019
:2083600000900AE00098411C009101218904884203D104F027FE0320C1E7FF2005F02AFB93
:208380000028EFD004F01EFEFF2005F023FB0020B5E70000A014002010B5002209490A4899
:2083A00002F0CCFC0949084803F06CF90849064802F01EFA0749044803F0C2F8024803F0DA
:2083C0003EFA10BDCC44010828050020D804002000450108B804002010B5324A1221515EE9
:2083E000134610229A5E304B1B889A1A51430846FCF7C4F92D4908602D48007801283BD196
:208400002C480078012803D12B480078012807D02A480078012808D129480078012804D1B5
:2084200022480068214908602AE022480078012803D023480078012808D11A48C16A1B48DB
:208440000068FBF7CBFF1949086019E01B480078012803D018480078012808D11148C16A00
:2084600012480068FBF77DFF1049086008E00F4800680E49086003E00C4800680B4908604A
:2084800000210A480068FCF7F7F903D200200D49086005E005480068FCF790F9094908609B
:2084A00010BD0000080C002068030020540300206503002094030020970300209503002008
:2084C000960300205803002010B5114800681149884203D00E480068002801D1002010BD46
:2084E0000B48006844690C480068002806D00A480068804700200849086007E0002C02D01B
:20850000A0470120EBE70020044908600020E6E75C04002008440108340400206804002006
:2085200001480068704700005C04002070B508480068C4680748844201D0002C01D1002046
:2085400070BDA569002D00D0A8470120F8E700005C0400200844010810B50A4800680A494D
:20856000884203D007480068002801D1002010BD044800688469002C02D0A0470120F6E73C
:208580000020F4E75C0400200844010870B504460B48844201D0002C00D170BD09480460D3
:2085A00009480068002802D0074800688047054800680569002D00D0A84700BFEDE70000E8
:2085C000084401085C0400208004002001490860704700008004002000218278002A27D0D9
:2085E000184A03231B02D21803789B109B00D15802789207D30EFF229A400B46934319468D
:2086000042789207120E03789B07DB0E9A4011430C4A03231B02D21803789B109B00D1504E
:208620000278D306DB0E01229A40064B1A6007E00278D306DB0E01229A40024B80331A609C
:208640007047000000E100E0F8B505460E4614461F460F480078401C0D49087008460078D8
:20866000A84207DDB047012009490870094844610948046009480A490860002F06D009483D
:208680000078002802D0002006490870F8BD0000640400201C1100205C0400201114010849
:2086A000680400205904002010B5002410211148FEF73AF9012801D1012419E020210D4867
:2086C000FEF732F9012801D1022411E002210920C006FEF729F9012801D1032408E0012113
:2086E0000448FEF721F9012801D1042400E00024204610BD00040048FEB50546D5E1286835
:2087000040308088029002980607360F002E70D1102102980840002836D100BF29680988D1
:20872000E74A114008460121C90301432A68118000BF2C46283428684030008A2178C9009B
:208740004018801C0122920229688918405A8005800DE061E1696069401860610021284694
:20876000FEF7B0F92420405D0028C7D0A0690028C4D12420405D802108432968403188811D
:2087800000212420415590E12C46FF3429342868008801900121C90201980840002829D0D3
:2087A00028684030008A2178C9004018801D0122920229688918405A8005800DE061A08BD7
:2087C00083B2E28828680090232000012918009803F0B4FF00BF29680988BA4A1140084693
:2087E000802101432A68118000BF2846FEF7CAFC5BE185E00121C903019808400028C2D05F
:2088000000BF29680988AF4A11400846802101432A68118000BF28684030008A2178C9002C
:208820004018801D0122920229688918405A8005800DE061E069002812D0606900280FD04A
:20884000A08B83B2E28861692868009003F076FFE16960694018606100212846FEF741F912
:2088600000BF29680091296840310A8A0099511800910122920200998918891D084600BF4A
:208880002269002A09D102888F4B1A40028002880123DB031A4302801EE022693E2A0CD8C9
:2088A00000BF22695108227CD207D20F002A00D0491C8A06120C02800EE000BF226951099C
:2088C000227CD206D20E002A00D1491E8A020123DB031A43028000BF00BF00BF00BF2968E6
:2088E00009887A4A114008460121090348404900484089000143802211432A681180D4E063
:20890000B1002868405A01900121C9030198084000287DD000BFB2002968895A694A1140BE
:20892000084680210143B3002A68D15200BF71012846FF3029300C18207B002817D1286816
:208940004030008A2178C9004018801D0122920229688918405A8705BF0D002F54D0E2882E
:20896000616928683B46009003F0E8FE4CE0217889002868405A012189030840002817D036
:2089800028684030008A2178C9004018801C0122920229688918405A8705BF0D002F1ED0FF
:2089A0002289616928683B46009003F0C7FE16E028684030008A2178C9004018801D0122EF
:2089C000920229688918405A8705BF0D002F06D06289616928683B46009003F0AFFE00BF25
:2089E00000BF227892002968895A354A8032114008460121C9030143C022114323789B00AA
:208A00002A68D15200BF00BFE069C019E06100E013E06069C0196061A069002802D02069FE
:208A2000B84204D921782846FEF75BF805E021782846A3696269FEF72CF9802101980840B1
:208A4000002832D07101284628300C1800BFB2002968895A1A4A114008460121C903014376
:208A6000B3002A68D15200BF28684030008A2178C9004018801C0122920229688918405A6C
:208A80008005800DE061E169606940186061A069002804D121782846FEF714F805E02178CB
:208AA0002846A3696269FEF760F92868403080880121C9030840002800D020E6FEBD00002C
:208AC0000F8F00008F0F0000FF8300008FBF000010B5FFF7E9FD47490870474800780300D7
:208AE00003F0C2FE05042230496986004348007802280AD10120FDF767FF044621460120DB
:208B000001F028FB00203D4908703A480078002809DD384800783A490870052000F040FBD8
:208B200001203549087063E00520FDF731FF35490978884205D901203049087002202E4940
:208B4000087055E02B4800782D49097888420ED1052000F025FB27480178012001F008FBAB
:208B600002202649087003202349087002E00020214908703CE01F48007821490978884251
:208B800015D10520FDF704FF1F490978884211D3052000F005FB17480178022001F0DAFA68
:208BA00003201649087004201349087002E00020114908701CE00F4800781149097888427F
:208BC00012D10520FDF7E4FE1049097888420ED3052000F0E5FA042008490870054801788B
:208BE000032001F0B7FA02E000200349087000BF00BF10BDF5030020F4030020F30300205A
:208C0000F6030020F7030020F8030020F903002000200FE01349095C022902D10021114AA0
:208C200011541049095C012902D102210D4A1154411CC8B20A28EDDB00200FE00A49095C9D
:208C4000022902D10021084A11540749095C012902D10221044A1154411CC8B20A28EDDBE5
:208C600070470000321200204612002000200CE00749095C012906D18100064A5158491CC0
:208C80008200044B9950411CC8B21E28F0DB7047141200209C110020002905D0054A526960
:208CA0000243044B5A6104E0024A52698243014B5A61704700100240002905D0054AD2691D
:208CC0000243044BDA6104E0024AD2698243014BDA61704700100240002905D0054A12693D
:208CE0000243044B1A6104E0024A12698243014B1A61704700100240002905D0054A9269DD
:208D00000243044B9A6104E0024A92698243014B9A61704700100240002905D0054AD268FD
:208D20000243044BDA6004E0024AD2688243014BDA60704700100240194800680121084371
:208D40001749086008464068164908401449486008460068144908401149086008460068D6
:208D60000121890488430E490860084640683F21090488430A4948600846C06A000900010F
:208D8000C8620846006B09490840054908630846406B4008400048630020886070470000B2
:208DA000001002400CB8FF08FFFFF6FEACFEF0FF10B502460021002300205111002902D13C
:208DC0000C4C23680BE0012902D10A4C236A06E0022902D1074C636A01E0064C636BD10609
:208DE000C90E01248C401C40002C01D0012000E0002010BD0010024001460020054A5068A4
:208E0000F02302469A43104602460A431046014A50607047001002400021024A9170114610
:208E20008870704700100240002807D00749496B012212041143054A516306E00349496BB8
:208E4000012212049143014A51637047001002400549096B10229143034A11631146096BA9
:208E600001431163704700000010024001460020064A506807231B0202469A4310460246B8
:208E80000A431046014A50607047000000100240002807D007490968012212061143054A8D
:208EA000116006E003490968012212069143014A1160704700100240074A52687B23DB0343
:208EC0009A43054B5A601A46526803460B431A43014B5A6070470000001002400146002027
:208EE000044AD06A0009000102460A431046014AD06270470010024001460020044A506802
:208F00008008800002460A431046014A50607047001002400549096B80229143034A116361
:208F20001146096B01431163704700000010024038B5002000900024002500BF1120FFF7D9
:208F400037FF05460098401C0090052109030098884201D0002DF1D01120FFF729FF002842
:208F600001D0012400E00024204638BD10B50021084607F0C7FD0D480022825E0CA1114850
:208F800003F02EFC0F4807F00FFE0121002007F0B9FD0D480078012803D10CA007F004FEFB
:208FA00002E00FA007F000FE10BD000012030020C4D3C3313A2020202020013D25336402C8
:208FC00000000000880C00206B030020CAEEEDF62E3A202020E7E0ECEAEDF3F2000000007D
:208FE000CAEEEDF62E3AEDE520E7E0ECEAEDF3F20000000010B50021084607F083FD0E480C
:209000000078012803D10DA007F0CEFD02E010A007F0CAFD0121002007F074FD11480023F6
:20902000C35E11480022825E10A1164803F0D8FB144807F0B9FD10BD6C030020C4D3C332EE
:209040003A20202020E7E0ECEAEDF3F200000000C4D3C3323A20EDE520E7E0ECEAEDF3F2A0
:20906000000000001403002010030020033D2533640220043D253364022020202020202089
:2090800020000000880C002010B50021084607F039FD0E4802780EA1124803F0A1FB1148DA
:2090A00007F082FD0121002007F02CFD0E480078012803D10DA007F077FD06E00A48007845
:2090C000002802D10EA007F06FFD10BD67030020C4E0F2F7E8EA20CBDDCF3A202025336401
:2090E00000000000880C00206A030020CAEEEDF62E3A202020E7E0ECEAEDF3F2000000005D
:20910000CAEEEDF62E3AEDE520E7E0ECEAEDF3F20000000010B50021084607F0F3FC084881
:20912000028808A10B4803F05BFB0A4807F03CFD0121002007F0E6FC07A007F035FD10BD26
:2091400068030020D3F1E8EBE8E53A2020463D2535640000880C00202020202020202020B1
:2091600020202020202020200000000070B501256D07002400BF06E0A000084940180068B6
:20918000A1006850641C302CF6D301210846FFF7C3FD032000F0D0FF70BD00000040000854
:2091A00000218200014B9950704700009C110020FFB5044615461E464320C0000759A81952
:2091C000012189027918C96F884209D9212305222046019900F063FB0020C04304B0F0BD30
:2091E0000020FBE7F0B504460E464320C00003595078C007C00F00280DD007215420C15299
:2092000006E0481E81B21148405C1F46563778540029F6D117E0872080000059C069242741
:209220007743C5192879411D1079884200DC11795420C15205E0481E81B2685C1F46563723
:2092400078540029F7D10020F0BD0000B244010870B503460C46154608214320C000C25804
:209260005420815206E0481E81B20448465C1046563046540029F6D1002070BDC144010879
:2092800070B503460C4615464320C000C25808215420815206E0481E81B20448465C104643
:2092A000563046540029F6D1002070BDB944010870B505460E4614462078232846D00EDC4A
:2092C0001A2837D006DC002816D003281AD012285AD11DE01B2821D01E2855D124E02A28E8
:2092E00046D004DC252837D028284DD13AE02F2844D05A2848D123E022463146284600F056
:2093000007FB4AE022463146284600F066FA44E0224631462846FFF765FF3EE022463146BC
:20932000284600F0EAFA38E022463146284600F0E4FA32E0224631462846FFF7A1FF2CE0B7
:20934000224631462846FFF783FF26E022463146284600F0EFF920E022463146284600F0E0
:2093600089F91AE022463146284600F012F914E022463146284600F020FB0EE02246314610
:20938000284600F0EFFA08E0202305223146284600F085FA0020C04370BD00BF0020FBE7CF
:2093A000F3B581B006464320C00084590920C00120184068112189016118498F48430546DB
:2093C00001204002854201D2284601E0012040020546112080012018418F2846FAF788FEF4
:2093E00080B200900920C00120180268872080008059076921465631009B0298B847002865
:2094000008DA112304223046029900F048FA0020C043FEBDABB2224656328121304601F099
:20942000A3FF112080012018418F2846FAF760FE0921C9016118096840180921C901611870
:209440000860112080012018418F2846FAF750FE0921C90161184968081A0921C901611890
:209460004860606B411B61630920C00120184068002801D1032020720020CAE7F3B581B036
:2094800006464320C00084590920C00120184068112189016118498F484305460120400270
:2094A000854201D2284601E0012040020546112080012018418F2846FAF71AFE80B2009022
:2094C0000920C00120180268872080008059476921465631009B0298B847002808DA0323FE
:2094E00004223046029900F0DAF90020C043FEBD112080012018418F2846FAF7F9FD09215B
:20950000C9016118096840180921C90161180860112080012018418F2846FAF7E9FD092141
:20952000C90161184968081A0921C90161184860606B411B61630920C00120184068002823
:2095400004D100213046FEF799FA20E00920C00120184068112189016118498F4843012193
:209560004902884209D20920C00120184068112189016118498F484301E00120400205460A
:20958000ABB2224656320121304601F0C8FD0020ADE7F8B506460F4615464320C0008459D3
:2095A000207A00285CD1207E80210840802808D0617E20230522304600F071F90020C04379
:2095C000F8BD872080008059816838468847002808D03A2302223946304600F060F90020C1
:2095E000C043EDE7A8780006E97809040843297909020843697908430921C90161180860BB
:20960000E8790002297A08430921C901611848600920C001201843680920C0012018394676
:2096200002683046FFF7C4FD002802DA0020C043C6E7022020720920C0012018406811210F
:2096400089016118498F48436169884208D0617E20230522304600F022F90020C043AFE7B5
:20966000012149025420015339463046FFF798FEA6E70000F8B505460E4617464320C000DB
:209680004459001D4059436829482218801C211830469847002808D03A2302223146284691
:2096A00000F0FDF80020C043F8BD012080022018C06F401E010E56200155012080022018CF
:2096C000C06F401E0002010E57200155012080022018C06F401E0004010E582001550120B5
:2096E00080022018C06F401EC1B259200155112080012018408F01165A200155112080018F
:209700002018408F01145B200155112080012018408F01125C200155112080012018408F05
:20972000C1B25D2001550821542001530020BBE77A040000FEB505460F464320C00044599F
:20974000002605E00021204656308155701C86B20C2EF7D387208000405901AA694643688E
:2097600038469847002808D03A2302223946284600F095F80020C043FEBD082159200155CB
:209780000098401E010E5A2001550098401E0002010E5B2001550098401E0004010E5C2097
:2097A00001550098401EC1B25D20015502215E2001556846808801145F20015568468088CA
:2097C00001126020015568468088C1B2612001550C21542001530020CEE770B504460D4614
:2097E0004320C0000159002305E0002608465630C654581CC3B2122BF7DB70265620465432
:209800000C265D204654232040010818007E232676018E19767EB04236D0232040010818E6
:20982000007EC0008B26F6008E19365C58204654232040010818007EC0008B26F6008E19C8
:209840008019467962204654232040010818007EC0008B26F6008E1980190679632046542F
:20986000232040010818007E401C232676018E193076232040010818007E042804D100201A
:20988000232676018E1930761226542046521079122802DC167954204652002070BDF0B549
:2098A00004464325ED00285923256D0145196D7EED008B26F600861972551D0223267601B0
:2098C0008619767EF6008B27FF00C719F619756023256D0145196D7E6D1C232676018619A3
:2098E000757623256D0145196D7E042D04D100252326760186197576F0BD30B503460C46DC
:209900004320C000C158002554204552002030BDF8B505460E4617464320C000445960699C
:20992000002808D0617E202305222846FFF7B7FF0020C043F8BD87208000405981683046CD
:209940008847002809D03A23022231462846FFF7A6FF05202072801FECE700215420015324
:209960000020E7E7F8B505460F4616464320C0004459707802210840022808D124230522CC
:2099800039462846FFF78BFF0020C043F8BD0920C001201843680920C001201839460268AA
:2099A0002846FFF705FC002802DA0020C043EDE70021542001530020E8E7F7B5064615461C
:2099C0004320C0008459207A00287FD1207E80210840802808D1617E202305223046FFF7B8
:2099E0005EFF0020C043FEBD872080008059816801988847002808D03A230222304601994A
:209A0000FFF74DFF0020C043EDE7872080008059C16801988847002808D027230222304698
:209A20000199FFF73CFF0020C043DCE7A8780006E978090408432979090208436979084371
:209A40000921C90161180860E8790002297A08430921C901611848600920C00120184368FE
:209A60000920C0012018026830460199FFF7A0FB002802DA0020C043B5E70920C0012018D4
:209A8000112189016118498F47684F436069B84208D0617E202305223046FFF700FF002009
:209AA000C043A0E701204002874202D2384602E00CE001204002074601202072BBB2224698
:209AC00056320121304601F02AFB04E030460199FFF7D4FC87E7002085E70000F0B597B0B0
:209AE0000720FCF755FF64287ED3D348007800287BD1D24800885A2803DCD148008F012840
:209B0000F6D10721CF4805F053FBCE490878FBF7D7FCCD490870CB494878FBF7D1FCCB496B
:209B20000870C8498878FBF7CBFCC9490870C5490879FBF7C5FCC7490870C2494879FBF7D1
:209B4000BFFCC5490870BF498879FBF7B9FCC3490870C3480078002803D1C2A0C24908603C
:209B600002E0C2A0C0490860C14800788C2803D1C0A0C149086006E0BD480078752802D182
:209B8000BEA0BD490860BE480078012803D1B7A0BC49086002E0B3A0BA490860BA480168AF
:209BA000BA480068FAF7D5FB1190FAF734FE04460D46B5484168B6480068FAF7CAFB1190B6
:209BC000FAF729FE06460F46B2480068FAF723FE15911490B0480068FAF71DFE139112905C
:209BE00099480178994801E024E120E1027898480378A548407B0E930F9210910D909A4864
:209C000001689D480068A54A127807970696099508940A920C910B90159914980591049049
:209C200098480068854909889D4A12689D4B1B6800930192029103909B499C48139B129A43
:209C400002F0CEFD9A48007801280BD1834800780090814803787F48027896A19B4802F084
:209C6000BFFD47E092480078002843D1984905F0FBFF98A1984806F0D4F800BF974996484B
:209C800006F00DF99649087008460078002803D19248407A002800D11DE09048007A1021A2
:209CA00008400028EAD18FA18C480930FAF7C9FA0028E3D089480D30FAF7EDFA8A4908806C
:209CC00008460088894909888842D7DD8648008886490880D2E700BF84480088401C83492C
:209CE00008800846028882A1784802F079FD03206F4908707649002005F0B6FF78490870A4
:209D000008460078002801D017B0F0BD7C4A7D4970A005F02CFE7249087008460078002834
:209D200000D0F1E76A488069801E69498978484375490860664880787249096848437349C5
:209D40000860084600684008714908606E4800684008704908606E4800686F49884237D24B
:209D60006E486F4908605BA15B4806F05AF85C49087008460078002800D0C5E700BF574940
:209D8000554806F08CF85649087008460078002803D15248407A002800D115E04F48007A80
:209DA000102108400028EAD14C4880885C4909688842E4D2494880885949086047490931A8
:209DC0005848FAF75FFADAE700BF564806F0F8F806223E49544805F05FFF414908700846A7
:209DE0000078002809D1514BB32251494E4806F04AF94D4805F0B0FD19E0394800780828B6
:209E000015D102223149484805F046FF4648C16805F03BFE32490870444B3822234942483D
:209E200006F031F92E4908703F4805F095FD0720FFF7B6F900BF67E7D50000202E030020E6
:209E40004A0C0020E0020020F4000020F5000020F6000020F7000020F8000020F900002003
:209E6000910300202D000000B80200202B00000048030020CE000000C0020020CA00000017
:209E800086030020BC020020080C002000030020080300200C03002034030020D50200203C
:209EA0005803002050030020144701087F020020A5030020303A2F253032645F2530326419
:209EC0005F253032642E637376000000C4020020A40900202F000000D40B0020F00B0020C2
:209EE000D600002045525200EC020020EE020020303A2F4552525F253034642E637376001D
:209F0000DC000020E0000020E8000020E4000020EC000020F0000020400D030000286BEE4C
:209F2000E80200203C0C002080070020D8000020CB01002010B501210920C006FCF7F4FC6B
:209F400000280CD006480078002808D10F20FFF727F901200249087000200249087010BD5D
:209F6000D2030020C70300200020014908707047C7030020002904D0028840231A430280B6
:209F800003E00288014B1A4002807047BFFF00008181704710B500220288C1239B011A40B3
:209FA0000B88CC892343CC8823430C8923434C8923438C8923431A4302808288084B1A4052
:209FC0008B881A4382800B8A03820288054B1A404B881A430280838B034C2340838310BD7C
:209FE000FFF00000FBFF0000FFF700008288034B1A40828082880A4382807047FFEF0000D0
:20A00000014600BF08480089022210400028F9D00548017300BF04480089C007C00F0028E9
:20A02000F9D00148007B704700300140FEB507460C46154601200E4908700B20FFF7B0F805
:20A040000C48FDF755FD002802D00020C043FEBD0848006D28800748066DC16C806C3246D6
:20A06000002301910090FAF76DF820600020EEE7D5000020601400200020704710B5044661
:20A080000120074908700B20FFF78AF8FDF7F2FE002802D00020C04310BD0020FCE7000063
:20A0A000D5000020014600207047014600207047F8B506460D4614461F4601200A49087078
:20A0C0000B20FFF76DF829462046FEF729F8002802D00020C043F8BD0120044908700A202D
:20A0E000FFF75EF80020F6E7D5000020D4000020F8B507460E4615461C4601200D49087034
:20A100000B20FFF74DF8012C07D131462846FEF7E5F800280BD0A01EF8BD2246314628465A
:20A12000FEF74CF8002802D00020C043F4E70020F2E70000D500002001460020044A1068D3
:20A140008008800002460A431046014A1060704700000140044A125C002A04D10122024B2E
:20A160001A54024A11547047321200203C120020014A1154704700003C120020012807D161
:20A1800009490968094A516107490968084A1160022807D107490968044A516105490968F1
:20A1A000034A116070470000DC0300201C1100205C040020E003002038B523480078FAF79A
:20A1C000E8FA05467F20C0050346042200210090284605F079FA0446FAF709FB1A490870DE
:20A1E00008460078030002F03FFB05040C141C242C000121002006F085FC14A006F0D4FCA2
:20A200001FE00121002006F07DFC15A006F0CCFC17E00121002006F075FC16A006F0C4FC0F
:20A220000FE00121002006F06DFC17A006F0BCFC07E00121002006F065FC18A006F0B4FC4B
:20A2400000BF00BF38BD0000B5030020202020323230C2202D2031EAC22020200000000053
:20A260002020202031EAC2202D203230EAC22020200000002020203335EAC2202D20313163
:20A2800030EAC220202020002020313530EAC2202D20323230EAC22020202000202033330D
:20A2A00030EAC2202D20373530EAC220202020000549095C002905D18200044B99500121FF
:20A2C000014A115470470000141200209C110020002008E000218200044B99500121044AB1
:20A2E0001154411CC8B21028F4DB70479C1100201412002010B5FCF76DFB10BD194800689B
:20A30000012108431749086008464068164908401449486008460068144908401149086049
:20A32000084600680121890488430E490860084640683F21090488430A4948600846C06A8D
:20A3400000090001C8620846006B09490840054908630846406B4008400048630020886089
:20A3600070470000001002400CB8FF08FFFFF6FE2CFEFCFF10B500241148007800280BD134
:20A3800005E0012061000F4A5052601CC4B21E2CF7DDFDF7A5F90EE00948007801280AD1FE
:20A3A00005E000206100074A5052601CC4B21E2CF7DDFDF795F900200349087010BD000001
:20A3C000F20200204A0C0020F103002010B50121054800F005F9002805D00121024800F064
:20A3E000EDF8FEF743FC10BD0004004010B50121164800F0F5F8002827D00121134800F085
:20A40000DDF81348007800281AD112480078012810D11148808A012189030840002804D050
:20A4200008460D49203108810FE0012080030A4988610AE00120800307492031088104E033
:20A440000120800304492031088110BD00100040F1020020F00200200008004810B50721B2
:20A46000414804F0A5FE40490878FBF729F83F4908703D494878FBF723F83D4908703A49CC
:20A480008878FBF71DF83B49087037490879FBF717F83949087034494879FBF711F8374904
:20A4A000087031498879FBF70BF87D21090140183349088030480078002810D1002131481D
:20A4C000FCF7BEFE002001E0411C88B27D21C9008842F9DB01212B48FCF7B2FE43E00021B4
:20A4E000084606F00FFB28A006F05EFB2248027827A1294802F074F9274806F055FB1F485F
:20A50000027823A1244802F06BF9234806F04CFB1B48028821A1204802F062F91E4806F0D3
:20A5200043FB0121002006F0EDFA1EA006F03CFB104802781DA1184802F052F9164806F052
:20A5400033FB0B48027819A1134802F049F9124806F02AFB0548027816A10F4802F040F942
:20A560000D4806F021FB10BDE0020020DA020020D9020020D8020020DC020020DD020020B7
:20A58000DE02002000540040C4E0F2E020200000252E32642E000000880C0020252E3464BB
:20A5A00000000000C2F0E5ECFF202000252E32643A000000252E326420200000CA430282FC
:20A5C00070470000002904D0028801231A43028003E00288014B1A4002807047FEFF0000F1
:20A5E00030B50246002000230024158A0D402B4695890D402C46002B03D0002C01D0012071
:20A6000000E0002030BD002A03D083890B43838102E083898B4383817047000000220288CF
:20A62000154B984206D001239B07984202D0134B984203D1124B1A404B881A43114B98426F
:20A6400003D0114B1A400B891A4302804B68C3620B880385084B984208D00C4B984205D000
:20A660000B4B984202D00B4B984201D18B7A03860123838270470000002C014000040040B7
:20A680008FFF000000100040FFFC00000040014000440140004801400021C9434160002163
:20A6A0000180018141808172704702460B461120400181588058002802D0002048657047F2
:20A6C0000220FCE770B504460E461120400105593146204600F07AFCE86411204001005988
:20A6E000002809D0892189000959686CCA6829464C319047002070BD0220FCE770B504463A
:20A700000E4600258321204600F05AFB0321204600F056FB8221204600F052FB11204001EE
:20A720000059002808D0892189000959486880470021112040010151284670BD70B50546C4
:20A74000112040014459001D4059002810D04020005DFF280CD041210A5D4021085D892133
:20A76000890049598B6821469847FF2140200155002070BDF8B504460F4600264023022259
:20A780008321204600F09EFC402302220321204600F098FC082303228221204600F092FCB9
:20A7A00009491120400101510559011D09590868804700206865A8654023032120466A6CB1
:20A7C00000F0ADFC3046F8BD3C1C002070B504461120400105590059002807D0402303211F
:20A7E00020466A6C00F09BFC002070BD0220FCE702460220002903D089239B00995000208E
:20A800007047024611204001835859640020704710B5034611204001C458A1642265002010
:20A8200010BD000070B505460C4611204001465920786021084000282CD0202839D1E08839
:20A8400000281ED020788021084000280DD0E28860788921890049598B6831469847E28892
:20A860003146284600F0BEF813E0617840208155A17941208155E2883146284600F08FF834
:20A8800007E0607889218900495900228B68214698470FE060780A2802D00B2807D105E00E
:20A8A00001220649284600F09DF800E000BF00BF00BF00BF00BF002070BD00001305002013
:20A8C00070B50546112040014459405900280FD0606D00280AD101206065206D83B283213D
:20A8E0002846A26C00F040FD002070BD0120FCE70220FAE770B504460D468520800000591B
:20A900002946426820469047002070BD70B504460D46FF20FD30005D022802D0032813D11E
