:020000040800F2
:10000000900D0020D5000008DD000008DF0000088A
:1000100000000000000000000000000000000000E0
:10002000000000000000000000000000E1000008E7
:100030000000000000000000E3000008E5000008E8
:10004000E7000008E7000008E7000008E7000008F4
:10005000E7000008E7000008E7000008E7000008E4
:10006000E7000008E7000008E7000008E7000008D4
:10007000E7000008E7000008E7000008E7000008C4
:10008000E7000008E7000008E7000008E7000008B4
:10009000E7000008E7000008E7000008E7000008A4
:1000A000E7000008E7000008E7000008E700000894
:1000B000E7000008E7000008E7000008E700000884
:1000C0000348854600F02AF800480047C928000880
:1000D000900D00200448804704480047FEE7FEE7F3
:1000E000FEE7FEE7FEE7FEE711110008C100000889
:1000F00030B50B46014600202022012409E00D46C0
:10010000D5409D4205D31D469540491B2546954047
:1001100040191546521E002DF1DC30BD064C01255C
:10012000064E05E0E36807CC2B430C3C984710349F
:10013000B442F7D3FFF7C8FFE030000800310008F1
:1001400030B5044604250B20000400F0AFF8054646
:10015000042D17D10C480069022108430A4908619F
:1001600008464461006940210843074908610B20A3
:10017000000400F09BF8054603480069022188430B
:1001800001490861284630BD0020024004200D4985
:10019000C968C907C90F002901D0012010E0094929
:1001A000C96810221140002901D0022008E0054949
:1001B000C96804221140002901D0032000E0042076
:1001C0007047000000200240034800698021084376
:1001D000014908617047000000200240002806D055
:1001E0000649096810221143044A116005E00349D9
:1001F000096810229143014A1160704700200240B3
:1002000078B506460C460425002000900B2000041B
:1002100000F04CF80546042D24D113480069012153
:1002200008431149086134800B20000400F03EF8B7
:100230000546042D10D1B01C0090200C00990880B8
:100240000B20000400F032F805460748006940081A
:1002500040000549086105E0034800694008400086
:1002600001490861284678BD00200240014600206F
:10027000044A10684008400002460A431046014AFA
:100280001060704700200240054800698021084046
:10029000002804D00348024948600348486070477A
:1002A0000020024023016745AB89EFCD10B503461E
:1002B0000424FFF76BFF044603E0FFF767FF0446E3
:1002C0005B1E012C01D1002BF7D1002B00D105249E
:1002D000204610BDF0B50A4600210023002400BFCF
:1002E0003DE001258D402B4615681D402C469C4263
:1002F00034D11579012D02D01579022D16D18568DA
:100300004F000326BE40B543856055794E00B54089
:10031000866835438560858801268E40B543858093
:10032000858896798E40B6B23543858005684F0042
:100330000326BE40B543056015794E00B5400668FA
:1003400035430560C5684F000326BE40B543C56010
:10035000D5794E00B540C6683543C560491C1029A3
:10036000BFD3F0BDF0B5002300244D07EE0E1546B7
:10037000B5402B46CD10AE0005462035AD594E0791
:10038000F70E0F26BE40B543CE10B6000746203705
:10039000BD51CD10AE003D46AD591D432C46CD108C
:1003A000AD003E467451F0BD0185704781617047D4
:1003B0001CB5012000030090032168464171012112
:1003C00001710021817169460920C006FFF782FF93
:1003D000012109030920C006FFF7E6FF1CBD10B587
:1003E00000F014FD012000F081FD00F0DBFD002095
:1003F00000F0BCFD01210905081100F0A5FD012058
:1004000000F08EFD022000F0BFFD002000F05EFD38
:10041000002000F073FD0120FFF728FF0120FFF707
:10042000DDFE01210320400400F0D0FC10BD0000DF
:100430001CB50B2000030090032168464171012187
:100440000171002181710121C17169460148FFF7E5
:1004500041FF1CBD0004004810B5002423E00B211F
:1004600009031548FFF7A0FF1E20001B4000134999
:10047000085A002805D1012149030F48FFF796FFCC
:100480000FE01E20001B40000C49085A012808D12B
:10049000C1030948FFF78AFF012149030648FFF716
:1004A00085FF601CC4B21E2CD9DD0121090302485E
:1004B000FFF77CFF10BD000000040048F806002094
:1004C00030B589B00446FF220021092000F0E6FE85
:1004D000C5B2002D02D0284609B030BD012210213E
:1004E00005A800F09AFE002801D00120F4E7FF22C1
:1004F00000210A2000F0D2FEC5B2002D01D028460E
:10050000EAE70122102101A800F087FE002801D0AF
:100510000220E1E76846007DC0210840801120707C
:100520006846007D3C210840801060706846007D70
:100530008007800FA0706846407DE0706846807D2F
:1005400020716846C07D60716846007E0001E080D1
:10055000E1886846407EF022104000110143E180AE
:100560006846407E0007000F20726846807E80212A
:100570000840C01160726846807E402108408011AA
:10058000A0726846807E202108404011E0726846D3
:10059000807E10210840001120730020607368469F
:1005A000807E8007000D206121696846C07E800042
:1005B0000143216121696846007FC02210408011FB
:1005C000014321616846007F38210840C010207532
:1005D0006846007F4007400F60756846407FE02115
:1005E00008404011A0756846407F1C2108408010DB
:1005F000E0756846407F8007400F2076217E684680
:10060000807F80221040C011014321766846807FA0
:100610007C210840801060766846807F8007C00E8D
:10062000A076A17E6846C07FE022104040110143C1
:10063000A1766846C07FC006C00EE07608A80078A4
:1006400080210840C011207708A800786021084068
:100650004011607708A800781C2108408010A0771E
:1006600008A800788007000FE077E17F08A84078AD
:10067000C022104080110143E17708A84078202172
:10068000084041112020015500212120015508A8D2
:100690004078C107C90F2220015508A88078802121
:1006A0000840C1112320015508A880784021084046
:1006B00081112420015508A880782021084041118B
:1006C0002520015508A88078102108400111262016
:1006D000015508A880780C21084081102720015579
:1006E00008A880788107890F2820015508A8C078BC
:1006F000FE21084041102920015501212A200155E1
:100700004E20005D042808D16846007F0002206169
:1007100021696846407F081820612069C004606430
:1007200001204002A064684601792C2001556846EA
:1007300040790102E185E18D684680790843E085D2
:100740006846C07901062163216B6846007A00047F
:1007500008432063216B6846407A00020843206307
:10076000216B6846807A084320636846C17A34204A
:1007700001556846017B352001556846407B0106DE
:10078000A163A16B6846807B00040843A063A16B52
:100790006846C07B00020843A063A16B6846007CEA
:1007A0000843A0633C20015D6846407CF022104075
:1007B000001101433C2001556846407C0007010DB3
:1007C000E187E18F6846807C0843E0876846C07C0B
:1007D000FE210840411040200155012141200155D2
:1007E000002079E67CB5002000900190002401E013
:1007F000601C84B2FF2CFBDD002404E0FF2000F02D
:10080000B7FD601C84B20A2CF8DB00240BE09522B3
:100810000021084600F042FDC5B2012D01D100249F
:1008200003E0601C84B2FF2CF1DB00BFFF2C01D180
:1008300001207CBD8722FF21AB31082000F067FD3D
:10084000C5B2052D5BD101217248817310210920A9
:10085000C006FFF7ABFDFF2000F08AFD002415E085
:1008600000221146372000F019FDC5B2012D01D03C
:100870002846DEE700221146292000F00FFDC5B210
:10088000002D01D1002404E0601C84B2624884423F
:10089000E6DB00BF6048844219D100240BE000224F
:1008A0001146012000F0FAFCC5B2002D01D1002450
:1008B00004E0601C84B258488442F0DB00BF564814
:1008C000844201D10220B4E7002152488173012003
:1008D00000F004F9012200213B2000F0DFFCC5B24A
:1008E000002D01D02846A4E7FF2201214902102053
:1008F00000F0D4FCC5B2002D7ED0284699E7012D2A
:100900007AD1FF2000F034FDC1B268460170FF20AB
:1009100000F02EFDC1B268464170FF2000F028FDB6
:10092000C1B268468170FF2000F022FDC1B2684666
:10093000C17010210920C006FFF738FDFF2000F02C
:1009400017FD68468078012861D16846C078AA28DA
:100950005DD1002416E000221146372000F09EFCF5
:10096000C5B2012D01D0284663E700220121890785
:10097000292000F093FCC5B2002D01D1002404E031
:10098000601C84B224488442E5DB00BF22488442D4
:1009900001D103204DE7002211463A2000F0B7FCB8
:1009A000C5B2002D01D0284643E7FF2000F0E0FC4F
:1009B000C1B268460170FF2000F0DAFCC1B268469F
:1009C0004170FF2000F0D4FCC1B268468170FF2066
:1009D00000F0CEFCC1B26846C17010210920C006EB
:1009E000FFF7E4FCFF2000F0C3FC684600784021DC
:1009F0000840002805D000E009E004210548817383
:100A000002E0022103488173012000F067F8002012
:100A10000FE7000078070020FF0F0000F7B505463C
:100A20000E461C48807B042800D06D020022294617
:100A3000122000F033FCC7B2002F01D00120FEBD10
:100A4000002415E06102881900220121490200F00A
:100A5000E4FB00280BD0002211460C2000F01EFC05
:100A600010210920C006FFF7A1FC0220E7E7641C63
:100A700002988442E6D3002211460C2000F00EFCBE
:100A800010210920C006FFF791FCFF2000F070FC48
:100A90000020D4E77807002070B504460E460E48C3
:100AA000807B042800D0640200222146112000F03F
:100AB000F5FBC5B2002D01D0012070BD012251020D
:100AC000304600F0AAFBC5B2002211460C2000F00F
:100AD000E5FB2846F1E700007807002010B586B056
:100AE0000446002168468180FF210531C18007212D
:100AF0000902018102214181012181814902C181D3
:100B00000021418207218182002C03D138206946CF
:100B1000088202E018206946088201A9044800F012
:100B200089FA01210903024800F0B6FA06B010BDA7
:100B3000003001401CB50121080300F057F90121E4
:100B4000480400F043F9E02000900221684601715A
:100B500003214171002181710121C1716946092080
:100B6000C006FFF7B7FB10200090032168464171D3
:100B700001210171002181710121C17169460920A2
:100B8000C006FFF7A7FB002205210920C006FFF7DA
:100B9000E9FB002206210920C006FFF7E3FB002243
:100BA00007210920C006FFF7DDFB10210920C00640
:100BB000FFF7FCFB0020FFF791FF0121014800F047
:100BC00021FA1CBD00300140FEB505460E46174611
:100BD0004A48807B042800D06D024848807B00286A
:100BE00004D000223946172000F058FB0022294685
:100BF000192000F053FBC4B2002C01D00120FEBD2F
:100C000010210920C006FFF7CFFBFF2000F0B0FB4A
:100C1000FF2000F0ADFBFF2000F0AAFB00200190B8
:100C200040E0FC2000F0A4FB0020029007E03078B8
:100C3000761C00F09DFB0298401C80B202900121BE
:100C4000490202988842F2DBFF2000F091FBFF206E
:100C500000F08EFBFF2000F08BFBC4B2E006C00E5C
:100C6000052806D010210920C006FFF79FFB0220AF
:100C7000C5E7002000900DE00098411C0091012183
:100C80008904884206D110210920C006FFF78EFB97
:100C90000320B4E7FF2000F06BFBFF28ECD10198A4
:100CA000401C01900198B842BBD3FD2000F060FBCE
:100CB000C4B2002C01D10420A1E7002000900DE077
:100CC0000098411C009101218904884206D110211D
:100CD0000920C006FFF76AFB052090E7FF2000F01F
:100CE00047FBFF28ECD110210920C006FFF75EFB6F
:100CF000FF2000F03DFB002081E700007807002086
:100D0000F8B504460D463048807B042800D06402C4
:100D100000222146182000F0C1FAC6B2002E01D0F0
:100D20000120F8BD10210920C006FFF73DFBFF2080
:100D300000F01EFBFF2000F01BFBFF2000F018FB63
:100D4000FE2000F015FB002705E028786D1C00F060
:100D50000FFB781C87B2012040028742F5DBFF20A1
:100D600000F006FBFF2000F003FBFF2000F000FB7B
:100D7000C6B2F006C00E052806D010210920C00614
:100D8000FFF714FB0220CCE7002000900DE0009854
:100D9000411C009101218904884206D110210920BB
:100DA000C006FFF703FB0320BBE7FF2000F0E0FADB
:100DB0000028ECD010210920C006FFF7F7FAFF2029
:100DC00000F0D6FA0020ACE778070020002905D013
:100DD000054A52690243044B5A6104E0024A5269CF
:100DE0008243014B5A61704700100240002905D030
:100DF000054A92690243044B9A6104E0024A9269EF
:100E00008243014B9A617047001002401948006804
:100E10000121084317490860084640681649084000
:100E200014494860084600681449084011490860A0
:100E3000084600680121890488430E490860084675
:100E400040683F21090488430A4948600846C06A4F
:100E500000090001C8620846006B094908400549BD
:100E600008630846406B40084000486300208860E3
:100E700070470000001002400CB8FF08FFFFF6FEAC
:100E8000ACFEF0FF10B502460021002300205111F6
:100E9000002902D10C4C23680BE0012902D10A4C35
:100EA000236A06E0022902D1074C636A01E0064C7E
:100EB000636BD106C90E01248C401C40002C01D06C
:100EC000012000E0002010BD00100240014600207B
:100ED000054A5068F02302469A43104602460A43E8
:100EE0001046014A50607047001002400021024A3B
:100EF0009170114688707047001002400146002032
:100F0000064A506807231B0202469A4310460246CF
:100F10000A431046014A506070470000001002402A
:100F2000002807D007490968012212061143054A23
:100F3000116006E003490968012212069143014A43
:100F40001160704700100240074A52687B23DB03A0
:100F50009A43054B5A601A46526803460B431A439C
:100F6000014B5A607047000000100240014600200B
:100F7000044AD06A0009000102460A431046014AA9
:100F8000D06270470010024001460020044A5068B9
:100F90008008800002460A431046014A50607047AC
:100FA0000010024038B5002000900024002500BF4A
:100FB0001120FFF767FF05460098401C00900521AF
:100FC00009030098884201D0002DF1D01120FFF7CD
:100FD00059FF002801D0012400E00024204638BD3C
:100FE000014800687047000000F8010810B5FFF7DD
:100FF0004BF90348FFF7A4F8FFF7E6F810BD00002F
:1010000000F80108002904D0028840231A43028016
:1010100003E00288014B1A4002807047BFFF0000C6
:101020000246002013890B40002B01D0012000E074
:101030000020704710B500220288C1239B011A408E
:101040000B88CC892343CC8823430C8923434C89C8
:1010500023438C8923431A4302808288084B1A4019
:101060008B881A4382800B8A03820288054B1A40C0
:101070004B881A430280838B034C2340838310BD2B
:10108000FFF00000FBFF0000FFF700000146002218
:101090000A460C32107870478288034B1A408280CF
:1010A00082880A4382807047FFEF000000220246D8
:1010B0000C3211707047000010B5FFF7E5F80349D6
:1010C0000348FFF79DF8FFF77FF810BD5555AAAA12
:1010D00000F8010870B505460E46012080030B4953
:1010E000088140212943084601F04EFB012080037E
:1010F000064920398861002404E0305D01F044FB9A
:10110000601CC4B2082CF8DB70BD0000200400484D
:1011100019480068012108431749086008464068DB
:1011200016490840144948600846006814490840B8
:1011300011490860084600680121890488430E4966
:101140000860084640683F21090488430A4948600E
:101150000846C06A00090001C8620846006B0949D8
:101160000840054908630846406B40084000486352
:101170000020886070470000001002400CB8FF0893
:10118000FFFFF6FE2CFEFCFF10B504460120800395
:1011900005490881204601F0F7FA01208003024941
:1011A0002039886110BD00002004004830B4744626
:1011B000641E2578641CAB4204D3635D5B00E318B6
:1011C00030BC18471D46F8E700BF00BF00BFBFF3A3
:1011D0004F8F00BF00BF00BF06480749C86000BF6F
:1011E00000BF00BFBFF34F8F00BF00BF00BF00BFF5
:1011F00000BFFDE70400FA0500ED00E002E008C8CA
:10120000121F08C1002AFAD170477047002001E080
:1012100001C1121F002AFBD17047F7B505460E46E3
:1012200010210920C006FFF7BFF8002409E0FF20C5
:1012300000F09EF8C7B2FE2F01D1002405E0601C2B
:1012400084B27D2000018442F1DB00BF7D200001DB
:10125000844206D110210920C006FFF7A7F801201B
:10126000FEBD002405E0FF2000F082F82855601C38
:1012700084B2B442F7DBFF2000F07AF8FF2000F0E0
:1012800077F80298002807D010210920C006FFF740
:101290008DF8FF2000F06CF80020E1E7F7B5064676
:1012A0000C46FF2000F064F810210920C006FFF76B
:1012B0007BF840213143084600F05AF8200E00F038
:1012C00057F82102080E00F053F82104080E00F030
:1012D0004FF8E0B200F04CF8029800F049F800270F
:1012E00008E0FF2000F044F8C5B2FF2D00D003E075
:1012F000781CC7B20A2FF4DB00BF10210920C006FA
:10130000FFF754F8FF2000F033F82846FEBDF7B58C
:1013100006460C46FF2000F02BF810210920C006DD
:10132000FFF742F840213143084600F021F8200E33
:1013300000F01EF82102080E00F01AF82104080E31
:1013400000F016F8E0B200F013F8029800F010F880
:10135000002708E0FF2000F00BF8C5B2FF2D00D0F9
:1013600003E0781CC7B2C82FF4DB00BF2846FEBDDF
:1013700010B5044600BF02211048FFF751FE0028B7
:10138000F9D021460D48FFF791FE7D20C0000C49A1
:10139000088009E00A4801880088401E084A108039
:1013A000002901D1002010BD01210448FFF738FEBB
:1013B0000028EFD00148FFF769FEF4E70030014054
:1013C0006400002070B504460D46607801232A466B
:1013D0002146303100F06AFD002801D0032070BDA5
:1013E00020463030FF30FF30407801022046303058
:1013F000FF30E130807F01431848814201D0022054
:10140000EDE76920005D01066820005D00040843E7
:101410006721095D090208436621095D084300024E
:10142000000A0F49884201D10020D8E78520005DDD
:1014300001068420005D000408438321095D090240
:1014400008438221095D08430002000A04498842DA
:1014500001D10020C3E70120C1E7000055AA000028
:1014600046415400024600E0521C1078002802D089
:1014700010788842F8D1107870470000F7B58CB02A
:101480000C98006802900298007830380B900B9806
:1014900009280AD8029840783A2806D10298801C78
:1014A00002900C990298086001E000200B900B98C4
:1014B000002802D00B200FB0F0BD0B988000EC4943
:1014C0000C580D980460002C01D10C20F3E7207813
:1014D000002814D0607800F014FD0A900A98C00724
:1014E000C00F00280BD10E98002806D004210A98BE
:1014F0000840002801D00A20DDE70020DBE70020BB
:1015000020700B986070607800F085FC0A900A9853
:10151000C007C00F002801D00320CCE70E98002898
:1015200006D004210A980840002801D00A20C2E70A
:101530000020014609902046FFF744FF0546012D93
:1015400015D12746FF37EF37387900280FD0F87AC2
:101550000006B97A09040843797A09020843397AFE
:101560000843099020460999FFF72CFF0546032DF3
:1015700001D101209FE7002D01D00D209BE73C20E9
:10158000005D00023B21095D0843012149028842B8
:1015900001D00D208FE74720005D00024621095D44
:1015A00008430890089800280ED15720005D0106D6
:1015B0005620005D000408435521095D09020843D7
:1015C0005421095D084308900898E0614020065DB9
:1015D000E670012E03D0022E01D00D206BE7089893
:1015E000704308903D20005D0646A070002E03D099
:1015F000701E3040002801D00D205CE74220005DC5
:1016000000024121095D08432081207A0007000F74
:10161000002801D00D204EE74420005D0002432148
:10162000095D08430790079800280ED15320005DFC
:1016300001065220005D000408435121095D0902A2
:1016400008435021095D084307903F20005D0002D8
:101650003E21095D084303900398002801D10D2025
:1016600029E708990398401821890909401806902C
:1016700007990698814201D20D201CE7A178069BAC
:10168000079AD01AFEF734FD05900598002801D17D
:101690000D2010E7012577490598884200D30225DF
:1016A00075490598884200D303250598801CA061E0
:1016B000069909984018A062039909984018206279
:1016C000032D17D12089002801D00D20F3E65F20DB
:1016D000005D01065E20005D000408435D21095D98
:1016E000090208435C21095D08436062A06980002B
:1016F000049016E02089002801D10D20DBE6216A44
:10170000089808186062022D02D1A069400007E025
:10171000A069410040184008217EC907C90F401840
:101720000490E1690498FF30FF300130400A8142A3
:1017300001D20D20BFE60020C04320610020E06000
:10174000032D7DD160716120005D01026020005D8C
:101750000143099808186061607862690123214695
:101760003031019000F0A2FB002874D120463030C7
:10177000FF30FF304078010220463030FF30E1304A
:10178000807F01433D48814265D13320005D0006E2
:101790003221095D090408433121095D090208432A
:1017A0003021095D08433649884254D12046303003
:1017B000FF30E530C078010620463030FF30E5309C
:1017C00080780004084321463031FF31E531497803
:1017D0000902084321463031FF31E13109790843DC
:1017E0002849884237D120463030FF30ED30C0786C
:1017F000010620463030FF30ED3080780004084389
:1018000021463031FF31ED31497809020843214644
:101810003031FF31E131097B0843E0602046303050
:10182000FF30E930C078010620463030FF30E93023
:1018300080780004084321463031FF31E93100E06F
:1018400009E049780902084321463031FF31E1318E
:10185000097A0843206125700B480088401C80B23B
:1018600009490880E0800020E062207100BF22E684
:1018700068000020F60F0000F6FF000055AA0000E7
:1018800052526141727241616C0000200246891E11
:101890009069801E884201D80020704790784843A4
:1018A000936AC018F9E70000F3B581B004460298C6
:1018B000002807D1E768002F02D0A069B84210D8ED
:1018C00001270EE02046029900F04DFE0646022E4A
:1018D00001D20120FEBDA069B04201D93046F9E72E
:1018E000029F3D4600BF6D1CA069A84204D8022596
:1018F000BD4201D90020EDE72946204600F033FE25
:101900000646002E00D10AE0701C002801D0012EEE
:1019100001D13046DEE7BD42E5D10020DAE700BF65
:10192000144A2946204601F0D2F900900098002878
:1019300008D10298002805D02A462046029901F0D5
:10194000C6F90090009800280AD1E5602069401C83
:1019500000280CD02069401E20610120607106E043
:101960000098012801D1801E00E00120054628468C
:10197000B0E70000FFFFFF0FF3B585B0059886695B
:101980000B222021304601F05DF900200546074674
:1019900002900820039006980068019000BF02980A
:1019A000411C029101990C5C202C03DD2F2C01D0ED
:1019B0005C2C00D156E02E2C02D0039887420DD328
:1019C0000398082801D12E2C02D0062007B0F0BDC4
:1019D00008270B200390A806050EE0E7802C01DB0A
:1019E00003200543812C21DBFE2C1FDC0298411CC7
:1019F00002910199085C04900498402802DB049845
:101A00007E2805DD0498802806DB0498FE2803DC88
:101A10000398401EB84201D80620D7E738467F1CFD
:101A2000345439467F1C049870541AE0214622A091
:101A3000FFF718FD002801D00620C7E7412C04DB82
:101A40005A2C02DC0220054308E0612C06DB7A2CCC
:101A500004DC0120054320462038C4B238467F1CF0
:101A600034549CE700BF0299019841180698016020
:101A7000202C01DC042000E000200446002F01D1CE
:101A80000620A3E73078E52801D1052030700398BF
:101A9000082801D1A806050EA807800F012801D14A
:101AA000102004430C202840042801D108200443BE
:101AB000F47200208AE70000222A2B2C3A3B3C3D9E
:101AC0003E3F5B5D7C7F00000021044A516200BF05
:101AD0000249496A8142FBD370470000004401403B
:101AE00070B50446002504E07D20C000FFF7ECFF40
:101AF0006D1CA542F8D970BDF8B5044600212046FA
:101B000000F03BF90546002D01D02846F8BD00BF86
:101B10002169206801F0A0F80546002D00D019E0E9
:101B200066693778002F01D1042513E0F07A082187
:101B30000840002807D10B223046A16901F060F867
:101B4000002800D106E00021204600F006F80546F6
:101B5000002DDDD000BF2846D8E7F3B581B004469C
:101B6000E088401C86B2002E02D02069002801D1F6
:101B70000420FEBD3007000F002875D12069401CED
:101B80002061E068002805D120680089B0426BDC44
:101B90000420EEE7300921688978491E08400028B2
:101BA00062D1E168206800F0DEFC0546012D01D815
:101BB0000220DEE7681C002801D10120D9E7206857
:101BC0008069A8424AD80298002801D10420D0E7B1
:101BD000E1682068FFF768FE0546002D01D1072067
:101BE000C7E7012D01D10220C3E7681C002801D1FD
:101BF0000120BEE70021206801F02EF8002801D066
:101C00000120B6E721680846303001225202002147
:101C100001F018F829462068FFF738FE2168C862ED
:101C2000002711E00120216808710021206801F0DF
:101C300013F8002801D001209BE72068C06A401CEF
:101C40002168C862781CC7B220688078B842E9DC95
:101C50002068C06AC01B2168C86200BFE5602946D1
:101C60002068FFF713FE2061E680206830303107DE
:101C7000C90D4018606100207BE7F8B504460425D3
:101C80001FE02169206800F0E7FF0546002D00D025
:101C90001AE067693E78002E01D1042514E0E52E94
:101CA00007D02E2E05D0F87A08210840002800D150
:101CB0000AE000212046FFF750FF0546002D00D026
:101CC00002E020690028DCD100BF002D01D00020F7
:101CD00020612846F8BDF8B504460021204600F0F2
:101CE0004CF80546002D17D100BF2169206800F08F
:101CF000B3FF0546002D00D00DE060690678E52EA3
:101D000001D0002E00D106E001212046FFF725FF7B
:101D10000546002DE9D000BF002D14D121692068AF
:101D200000F09AFF0546002D0DD1676920220021A1
:101D3000384600F087FF0B223846A16900F075FF96
:101D40000120216808712846F8BD70B50446E18875
:101D5000204600F012F80546002D0CD121692068BC
:101D600000F07AFF0546002D05D1E5206169087075
:101D7000012021680871284670BDF8B504460E465A
:101D8000E680A568012D03D020688069A84201D8AB
:101D90000220F8BD002D05D120680078032801D16C
:101DA0002068456A002D0CD1E56020680089B042AA
:101DB00001DC0220EDE72068406A3109401820610B
:101DC00021E020688078070113E02946206800F0B0
:101DD000CAFB0546681C002801D10120D9E7022D65
:101DE00003D320688069A84201D80220D1E7F01B04
:101DF00086B2BE42E9DAE56029462068FFF746FD73
:101E0000310940182061206830303107C90D401871
:101E100060610020BDE770B50546002D04D0012D9E
:101E20000AD0022D0CD109E0FEF7DCFC0446002CA0
:101E300000D170BD0120FCE70120FAE70120F8E79E
:101E40000120F6E770B506460C461546002E01D077
:101E5000042070BD1448FEF733FB2300FFF7A6F9FA
:101E60000F090B20132018191A20201B1C1D1E1FE0
:101E700020000020EDE70C4A916C506CFEF738F919
:101E800028600020E5E70848806C28800020E0E713
:101E900006E005E004E003E002E001E000E000BF4E
:101EA00000BF0420D5E7000038070020FFB581B04F
:101EB000064617461C46002C02D1042005B0F0BD92
:101EC000002E04D0012E16D0022E16D114E0012CC3
:101ED00005D138460299FEF7DFFD054605E02246AA
:101EE00038460299FEF79AFD0546002D01D10020E3
:101EF000E4E70120E2E701E000E000BF00BF0120CD
:101F0000DCE70146002904D0012904D0022906D1CA
:101F100003E0002070470020FCE70020FAE700BF44
:101F200000BF0120F6E7FFB581B0064617461C4604
:101F3000002C02D1042005B0F0BD002E02D0022EEC
:101F400015D113E0012C05D138460299FEF7D8FED1
:101F5000054605E0224638460299FEF735FE05465D
:101F6000002D01D10020E6E70120E4E700E000BFFA
:101F700000BF0120DFE770B50446204600F0DBF922
:101F80000546002D00D12060284670BD10B50246E0
:101F9000012A01DB0B2010BD9000074C2358002BB9
:101FA00001D000201870002901D000200870900096
:101FB000014C21500020EEE768000020F7B58CB0FE
:101FC0000546164600202860F606F60E72085200F6
:101FD00005A90DA8FFF752FA074602A80B90002F9B
:101FE00004D105A80D9900F06BFA07460A9C002F52
:101FF00002D1002C00D106271C20304000285FD0E1
:10200000002F09D0042F03D105A8FFF764FE07466F
:10201000082006430A9C0BE004203040002801D031
:10202000082705E0E07A11210840002800D00727A2
:10203000002F44D108203040002840D000F007FB9A
:1020400001900198A07301980004010EE1730198BA
:102050000002010E21740198010E61740020E072EB
:10206000207700216177A177E177607D0002217DF3
:1020700008430004E17E0902A27E11430843009058
:102080000020A0760021E176207561750120059978
:1020900008710098002812D00598C06A0190009934
:1020A000059800F0B7FE0746002F08D10098401EA3
:1020B0000599C8600199059800F0CEFD074612E029
:1020C000002F10D1E07A10210840002801D0042709
:1020D00009E002203040002805D0E07AC007C00F98
:1020E000002800D00727002F09D108203040002801
:1020F00001D0202006430598C06AE8612C62002FB9
:102100001ED1AE71607D0002217D08430004E17E96
:102110000902A27E114308432861E07F0006A17FE7
:1021200009040843617F09020843217F0843E860EE
:102130000020A860A861059828600598C088A8803C
:1021400038460FB0F0BDFFB587B004461546089875
:10215000019000210A980160A188206800F026FF04
:1021600006900698002802D006980BB0F0BDA07922
:1021700080210840002801D00220F6E7A079C0079E
:10218000C00F002801D10720EFE7A168E068401ADE
:1021900004900498854200D9049DC7E02089C005B9
:1021A000C00D002872D1A068400A21688978491EB4
:1021B0000840C0B20290029800281ED1A0680028F2
:1021C00001D1206903E06169206800F0CCF9059035
:1021D0000598012805D8A07980210843A071022024
:1021E000C3E70598401C002805D1A0798021084349
:1021F000A0710120B9E70598606161692068FFF767
:1022000045FB0646002E05D1A07980210843A07128
:102210000220AAE702983618680A0390039800285B
:1022200035D003990298401821688978884204D9EA
:10223000206881780298081A03900398C3B2206836
:102240004078324600900199FFF730FE002805D013
:10225000A07980210843A071012086E7A079402160
:10226000084000280FD0A069811B039881420AD240
:10227000A169891B4A020199501801225202214684
:10228000243100F0D2FC0398470243E02EE0A0790D
:1022900040210840002814D020684078A26901231A
:1022A000214624310090FFF73EFE002805D0A0799A
:1022B00080210843A071012057E7A079402188437D
:1022C000A071A069B04210D0206840780123324646
:1022D000214624310090FFF7E9FD002805D0A079C0
:1022E00080210843A07101203FE7A6612089C00535
:1022F000C00D012149020F1AAF4200D92F46208993
:10230000C205D20D2046243011183A46019800F03B
:102310008CFC00BF0198C0190190A068C019A06092
:102320000A980068C1190A980160ED1B002D00D0C1
:1023300034E7002019E7F8B50446A188206800F0CA
:1023400035FE0746002F56D1A079202108400028ED
:1023500051D0A0794021084000280FD0216848784A
:10236000012321462431A269FFF7DDFD002801D0B9
:102370000120F8BDA07940218843A071E16920685F
:1023800000F06AFC0746002F35D1256AE87A202143
:102390000843E872207B2877A0890004010E697742
:1023A000E0680002010EA977E068010EE977207C61
:1023B000A876208A0004010EE97620690002000E4A
:1023C00028752069010E697500F041F90646AE7561
:1023D0003004010EE9753002010E2976310E69765E
:1023E000A07920218843A07101202168087120680C
:1023F00000F046FD07463846BBE771B591B00122B3
:102400000AA911A8FFF73AF80446002C55D16846EE
:1024100010900AA8119900F053F8044600BF002C50
:102420004BD10F9D002D01D1062405E0E87AC007AD
:10243000C00F002800D00724687D0002297D0843D2
:102440000604E97E0902AA7E11430E43002C1FD127
:10245000E87A1021084000281AD0022E01D2022466
:1024600016E01C220AA903A800F0DFFB0596022152
:1024700003A8FFF782FC0446002C09D103A8FFF74C
:10248000FCFB0446002C00D10724042C00D10024BE
:10249000002C12D10AA8FFF758FC0446002C0CD1DE
:1024A000002E04D031460A9800F0B4FC0446002CFB
:1024B00003D10A9800F0E4FC0446204612B070BD37
:1024C000F3B581B00446029800782F2803D0029813
:1024D00000785C2802D10298401C02900020A06085
:1024E00002980078202807D200212046FFF745FCFB
:1024F00006460020606134E000BF02A92046FFF7D5
:102500003BFA0646002E00D02AE02046FFF7F4FAF8
:102510000646A069C77A002E09D0042E00D01FE01D
:1025200000BF04203840002800D1052618E0042010
:102530003840002800D013E06569E87A102108408F
:10254000002801D105260BE0687D0002297D0843A3
:102550000004E97E0902AA7E11430843A060CCE78B
:1025600000BF3046FEBDF8B504460D46022D02D32D
:10257000A069A84201D80120F8BD2078012804D024
:10258000022832D003285ED142E02F467808C719CE
:102590007A0A206A8118204600F05EFB002800D0ED
:1025A00051E0F905C90D20463030405C00907F1C99
:1025B0007A0A206A8118204600F04EFB002800D0DD
:1025C00041E0F905C90D20463030405C0002009919
:1025D00008430090E807C00F002802D000980009C7
:1025E000CAE700980005000DC6E72A0A206A81188C
:1025F000204600F031FB002800D024E02806C10D61
:10260000204630300E187078000231780843B3E766
:10261000EA09206A8118204600F01EFB002800D03D
:1026200011E06806C10D204630300E18F078000623
:10263000B1780904084371780902084331780843E6
:102640000001000998E700BF0020C04394E77047ED
:1026500000B50120800309490881012000F094F8A9
:1026600019208001FFF730FA012080030349203947
:102670008861012000F004F800BD0000200400483B
:1026800010B50446012080030A490881601E0A49EA
:10269000085C0A4908700846007800F075F80120C7
:1026A00080030449203988610020044908700448E7
:1026B000047010BD20040048DC2F00083800002002
:1026C0003900002030B505460C46012080030A4938
:1026D00008810A48005D40190949087008460078D9
:1026E00000F052F801208003034920398861601C02
:1026F0000449087030BD000020040048DC2F0008A9
:10270000380000203900002010B504460120800365
:1027100013498861204600F037F812480078401CC1
:102720001049087008460078142806D0282808D0D8
:102730003C280AD0502810D10BE00220FFF7A0FF60
:102740000BE00320FFF79CFF07E00420FFF798FF52
:1027500003E00120FFF794FF00BF00BF10BD0000A1
:10276000000400483800002010B5044605E0227837
:10277000641C0449885CFFF7C7FF20780028F6D165
:1027800010BD0000E02F000810B50446201100F035
:1027900005F82007000F00F001F810BD10B5034642
:1027A000D843C4B2FF2001300921C9068861200442
:1027B000184388610A20FFF787F9FF200130034999
:1027C00008813220FFF780F910BD0000200000488A
:1027D00000B5FF200130214908818001204908818E
:1027E0007D20C001FFF770F90320FFF7D7FF1D48D8
:1027F000FFF76AF90320FFF7D1FF6420FFF764F9C0
:102800000320FFF7CBFF0220FFF7C8FF2C20FFF7C4
:10281000BBFF0820FFF7B8FF0120FFF7B5FF062038
:10282000FFF7B2FF012080030D4920398861FFF7CF
:102830000FFF0C20FEF7A8FC0B490020FEF74AFC16
:102840000A490820FEF746FC09491020FEF742FC21
:1028500008491820FEF73EFC00BD0000200000489B
:1028600020040048041000004C0000204400002018
:10287000540000205C00002010B501210720400416
:10288000FEF7A4FA03200E494871FF2010300860BB
:102890000120087100208871C8710920C006FDF769
:1028A00019FD0320064948710120800308600120BA
:1028B000087100208871C8710248FDF70BFD10BD3A
:1028C0003C00002000040048FFB08DB0FDF787FDFC
:1028D000FDF76EFD9448806901214904084392493F
:1028E00088612F2091490881904820380088012173
:1028F00008438E4920390880002000E0401C8C49A4
:102900008842FBD3FDF794FD002405E00020610020
:10291000884A5052601CC4B21E2CF7DDFDF79CFDA6
:10292000FFF7AAFFFFF754FFFEF75AFB82498842E0
:1029300013D1FEF75BFB72B680484068804908609F
:10294000084600687F4908607C49086880F3088869
:1029500000BF7C4800688047E3E000210846FFF79D
:10296000B1FE79A0FFF700FF01210020FFF7AAFECA
:102970007AA0FFF7F9FE7D20C000FFF7B1F8FEF75F
:10298000D9F87B490020FFF701FB002870D179A21C
:1029900007CA6B4607C300206946C872012203A814
:1029A000FFF70CFB764908700846007800287DD1B7
:1029B00000210846FFF786FE72A0FFF7D5FE012131
:1029C0000020FFF77FFE74A0FFF7CEFEFDF75CFC52
:1029D000002506E0E902594A8818FDF7B1FB681C9A
:1029E000C5B2362DF6DB71490698086000207049A3
:1029F000086052486F4908601FE06F4B0122520285
:102A00006E4903A8FFF79FFB69480068FF30FF305D
:102A100002306749086000250BE068484159654865
:102A20000068FDF7EDFB63480068001D6149086020
:102A30002D1D012040028542EFD35C4800685C49AF
:102A40000968401A012149028842D6D257480068D5
:102A500057490968884223D0544800685449096896
:102A6000421A554B554903A8FFF76DFB00250CE0B2
:102A700056E0524841594F480068FDF7C1FB4D48A8
:102A80000068001D4B4908602D1D484800684849F2
:102A90000968401AA842ECD84448006844490860D4
:102AA000FDF792FB03A8FFF766FA00E01AE068461C
:102AB000FFF7A3FCFEF79AFAFEF7FEFA002108469C
:102AC000FFF700FE3EA0FFF74FFE01210020FFF7B9
:102AD000F9FD40A0FFF748FE7D20C000FFF700F899
:102AE000FEF772FB154800683F490840012149077D
:102AF000884205D1FEF77AFAFEF7DEFAFEF764FBAC
:102B000000210846FFF7DEFD2DA0FFF72DFE012175
:102B10000020FFF7D7FD35A0FFF726FE00BFFEE738
:102B200000BF00BFFEE7000000100240204401404B
:102B300010270000F80600205555AAAA00400008FA
:102B400024000020200000202020202020CFF0E8BA
:102B5000E1EEF02020202020000000002020E1E510
:102B6000E7EEEFE0F1EDEEF1F2E8202000000000EA
:102B70009402002070726F6772616D2E62696E0040
:102B8000000000202020202020CDE0E9E4E5EDE059
:102B9000202020200000000020202020EFF0EEF870
:102BA000E8E2EAE0202020200000000028000020C9
:102BB0002C0000203000002034000020F804002009
:102BC00020202020CFF0EEF8E8E2EAE020202020CC
:102BD00000000000202020E7E0E2E5F0F8E5EDE06D
:102BE00020202020000000000000FF2F2020EDE525
:102BF00020E7E0E3F0F3E6E5EDE020200000000050
:102C0000F8B503461C460D460020009000BF104654
:102C1000521E002807D02078641C2E786D1C801B63
:102C200000900028F3D00098F8BD70B503460C461C
:102C300003E025781D70641C5B1C1546521E002D98
:102C4000F7D170BD30B5034601E019705B1C144626
:102C5000521E002CF9D130BDF8B504460D46E66A87
:102C6000AE4232D02079002821D06078012332464C
:102C700021463031FFF757F9002801D00120F8BD77
:102C800000202071E169206A4018B0420FD9E7782E
:102C90000AE0E06986196078012332462146303126
:102CA000FFF741F9781EC7B2012FF2DC00BF002DFB
:102CB0000BD0607801232A4621463031FFF7F6F821
:102CC000002801D00120DAE7E5620020D7E7FEB551
:102CD00005460E461746022E02D3A869B04202D816
:102CE0000220009094E02878012804D002284BD0DC
:102CF00003287ED15DE00196019E70088019019045
:102D00002A6A0198400A11182846FFF7A5FF00908B
:102D10000098002800D078E00198C105C90D284628
:102D200030300C18F007C00F002805D020780007BD
:102D3000000F3901084300E0384620700198401C1C
:102D40000190012028712A6A0198400A111828462A
:102D5000FFF782FF00900098002800D055E001980E
:102D6000C105C90D284630300C18F007C00F0028E7
:102D700002D03805000E05E02078F0210840390522
:102D8000090F0843207040E0320A286A811828465B
:102D9000FFF762FF00900098002800D035E0300671
:102DA000C10D284630300C1827703804000E6070B2
:102DB0002BE0F209286A81182846FFF74DFF0090A2
:102DC0000098002800D020E07006C10D2846303061
:102DD0000C18E0780006A17809040843617809021C
:102DE000084321780843000F000707432770380481
:102DF00000E007E0000E60703802000EA070380E90
:102E0000E07002E00220009000BF00BF01202871A6
:102E10000098FEBDF8B504460E46022E02D3A06906
:102E2000B04201D8022729E0002723E0314620469E
:102E3000FFF799FB0546002D00D11EE0012D01D1C1
:102E400002271AE0681C002801D1012715E00022A2
:102E500031462046FFF73BFF0746002F00D00CE02D
:102E60002069401C002804D02069401C20610120FA
:102E700060712E46A069B042D8D800BF3846F8BD70
:102E800070B5044600212046FFF7E6FE0546002DFA
:102E90007ED1207803287FD1607900287CD0002063
:102EA000E06201225202002120463030FFF7CAFEC4
:102EB000552120463030FF30E1308177AA2120466D
:102EC0003030FF30FF304170522130200155312029
:102ED00001556121322001554121332001557221D4
:102EE00020463030FF30E130017120463030FF3075
:102EF000E5304170412120463030FF30E5308170AF
:102F0000612120463030FF30E530C170217C204601
:102F10003030FF30E1300172208A0004010E20467B
:102F20003030FF30E930417020690002010E204648
:102F30003030FF30E93081702069010E204630309A
:102F4000FF30E930C170217B20463030FF30E13066
:102F50000173A0890004010E20463030FF30ED30AF
:102F60004170E0680002010E20463030FF30ED3045
:102F70008170E068010E20463030FF30ED30C170C6
:102F800060780123214630316269FEF7CCFF01E011
:102F90000AE001E000206071607800221146FEF72F
:102FA00051FF002800D00125284670BD70B50446A9
:102FB0000D46002C05D02078002802D0E088A842D9
:102FC00001D0092070BD6078FEF79BFFC007C00FDD
:102FD000002801D00320F5E70020F3E780C094D457
:102FE00000000102030405060700000000000000C5
:102FF00000000000000000000000000000000000D1
:10300000202122232425262728292A2B2C2D2E2F48
:10301000303132333435363738393A3B3C3D3E3F38
:10302000404142434445464748494A4B4C4D4E4F28
:10303000505152535455565758595A5B4C5D5E5F28
:10304000606162636465666768696A6B6C6D6E6F08
:10305000707172737475767778797A7B7C7D7EE98E
:10306000C8C9CACBCCCDCECFE7E8EAEBECEDEEEFAA
:103070007F202020202020202020202020202020F1
:10308000D0D1D2D3D4D5D6D7D8D9DADBDCDDDEDFC8
:10309000F0F1F2F3F4F5F6F7F8F9FAFBFCFDFEFFB8
:1030A00041A042A1E045A3A4A5A64BA74D484FA827
:1030B000504354A9AA58E1ABACE2ADAEC4AFB0B135
:1030C00061B2B3B4E365B6B7B8B9BABBBCBD6FBE45
:1030D0007063BF79E478E5C0C1E6C2C3C4C5C6C7A2
:1030E000003100080000002070000000FC11000802
:1030F0007031000870000020200D00000C12000844
:103100000000000000000000940200200000000009
:1031100000000000000000000000000000000000AF
:10312000000000000000000000000000000000009F
:10313000000000000000000000000000000000008F
:10314000000000000E0A0E00000000000915050531
:10315000020202040000091512120D000609090EF0
:1031600009090E10E8030000000000000000000044
:04000005080000C12E
:00000001FF
